{
  "_format": "hh-sol-artifact-1",
  "contractName": "AppointmentContract",
  "sourceName": "contracts/AppointmentContract.sol",
  "abi": [
    {
      "inputs": [
        {
          "internalType": "uint256",
          "name": "_depositAmount",
          "type": "uint256"
        }
      ],
      "stateMutability": "nonpayable",
      "type": "constructor"
    },
    {
      "anonymous": false,
      "inputs": [
        {
          "indexed": false,
          "internalType": "address",
          "name": "sender",
          "type": "address"
        },
        {
          "indexed": false,
          "internalType": "address",
          "name": "receiver",
          "type": "address"
        },
        {
          "indexed": true,
          "internalType": "address",
          "name": "participant",
          "type": "address"
        },
        {
          "indexed": false,
          "internalType": "uint256",
          "name": "depositAmount",
          "type": "uint256"
        }
      ],
      "name": "AppointmentConsented",
      "type": "event"
    },
    {
      "anonymous": false,
      "inputs": [
        {
          "indexed": false,
          "internalType": "address",
          "name": "owner",
          "type": "address"
        },
        {
          "indexed": false,
          "internalType": "address",
          "name": "receiver",
          "type": "address"
        },
        {
          "indexed": false,
          "internalType": "string",
          "name": "location",
          "type": "string"
        },
        {
          "indexed": false,
          "internalType": "string",
          "name": "date",
          "type": "string"
        },
        {
          "indexed": false,
          "internalType": "string",
          "name": "time",
          "type": "string"
        }
      ],
      "name": "AppointmentCreated",
      "type": "event"
    },
    {
      "anonymous": false,
      "inputs": [
        {
          "indexed": false,
          "internalType": "address",
          "name": "receiver",
          "type": "address"
        },
        {
          "indexed": true,
          "internalType": "address",
          "name": "participant",
          "type": "address"
        },
        {
          "indexed": false,
          "internalType": "uint256",
          "name": "depositAmount",
          "type": "uint256"
        }
      ],
      "name": "DepositRefunded",
      "type": "event"
    },
    {
      "inputs": [],
      "name": "appointmentCount",
      "outputs": [
        {
          "internalType": "uint256",
          "name": "",
          "type": "uint256"
        }
      ],
      "stateMutability": "view",
      "type": "function"
    },
    {
      "inputs": [
        {
          "internalType": "address",
          "name": "receiver",
          "type": "address"
        },
        {
          "internalType": "string",
          "name": "_location",
          "type": "string"
        },
        {
          "internalType": "string",
          "name": "_date",
          "type": "string"
        },
        {
          "internalType": "string",
          "name": "_time",
          "type": "string"
        }
      ],
      "name": "createAppointment",
      "outputs": [],
      "stateMutability": "nonpayable",
      "type": "function"
    },
    {
      "inputs": [],
      "name": "depositAmount",
      "outputs": [
        {
          "internalType": "uint256",
          "name": "",
          "type": "uint256"
        }
      ],
      "stateMutability": "view",
      "type": "function"
    },
    {
      "inputs": [],
      "name": "getAppointmentCount",
      "outputs": [
        {
          "internalType": "uint256",
          "name": "",
          "type": "uint256"
        }
      ],
      "stateMutability": "view",
      "type": "function"
    },
    {
      "inputs": [
        {
          "internalType": "address",
          "name": "receiver",
          "type": "address"
        }
      ],
      "name": "getIsMet",
      "outputs": [
        {
          "internalType": "bool",
          "name": "",
          "type": "bool"
        }
      ],
      "stateMutability": "view",
      "type": "function"
    },
    {
      "inputs": [
        {
          "internalType": "address",
          "name": "receiver",
          "type": "address"
        }
      ],
      "name": "getLocation",
      "outputs": [
        {
          "internalType": "string",
          "name": "",
          "type": "string"
        }
      ],
      "stateMutability": "view",
      "type": "function"
    },
    {
      "inputs": [
        {
          "internalType": "address",
          "name": "receiver",
          "type": "address"
        }
      ],
      "name": "getTime",
      "outputs": [
        {
          "internalType": "string",
          "name": "",
          "type": "string"
        }
      ],
      "stateMutability": "view",
      "type": "function"
    },
    {
      "inputs": [
        {
          "internalType": "address",
          "name": "owner",
          "type": "address"
        }
      ],
      "name": "giveConsent",
      "outputs": [],
      "stateMutability": "payable",
      "type": "function"
    },
    {
      "inputs": [
        {
          "internalType": "address",
          "name": "receiver",
          "type": "address"
        }
      ],
      "name": "refundDeposit",
      "outputs": [],
      "stateMutability": "nonpayable",
      "type": "function"
    },
    {
      "inputs": [
        {
          "internalType": "address",
          "name": "receiver",
          "type": "address"
        }
      ],
      "name": "verifyMeet",
      "outputs": [],
      "stateMutability": "nonpayable",
      "type": "function"
    }
  ],
  "bytecode": "0x60806040523480156200001157600080fd5b50604051620019ba380380620019ba83398181016040528101906200003791906200005c565b8060028190555050620000ac565b600081519050620000568162000092565b92915050565b6000602082840312156200006f57600080fd5b60006200007f8482850162000045565b91505092915050565b6000819050919050565b6200009d8162000088565b8114620000a957600080fd5b50565b6118fe80620000bc6000396000f3fe6080604052600436106100915760003560e01c8063799cb1c211610059578063799cb1c21461018f578063b0043e34146101ab578063d9e0dc59146101d4578063eebc3fb214610211578063f14716761461023c57610091565b806329e4afbb14610096578063419759f5146100c15780634b70cec4146100ec5780636469e970146101295780636a02e2e814610152575b600080fd5b3480156100a257600080fd5b506100ab610265565b6040516100b89190611508565b60405180910390f35b3480156100cd57600080fd5b506100d661026f565b6040516100e39190611508565b60405180910390f35b3480156100f857600080fd5b50610113600480360381019061010e91906110b1565b610275565b60405161012091906113e6565b60405180910390f35b34801561013557600080fd5b50610150600480360381019061014b91906110da565b61039f565b005b34801561015e57600080fd5b50610179600480360381019061017491906110b1565b6105fe565b60405161018691906113cb565b60405180910390f35b6101a960048036038101906101a491906110b1565b6106ac565b005b3480156101b757600080fd5b506101d260048036038101906101cd91906110b1565b6108c3565b005b3480156101e057600080fd5b506101fb60048036038101906101f691906110b1565b610977565b60405161020891906113e6565b60405180910390f35b34801561021d57600080fd5b50610226610aa1565b6040516102339190611508565b60405180910390f35b34801561024857600080fd5b50610263600480360381019061025e91906110b1565b610aa7565b005b6000600154905090565b60025481565b606060008060008473ffffffffffffffffffffffffffffffffffffffff1673ffffffffffffffffffffffffffffffffffffffff16815260200190815260200160002090508060030160009054906101000a900460ff1661030a576040517f08c379a0000000000000000000000000000000000000000000000000000000008152600401610301906114c8565b60405180910390fd5b8060020180546103199061161f565b80601f01602080910402602001604051908101604052809291908181526020018280546103459061161f565b80156103925780601f1061036757610100808354040283529160200191610392565b820191906000526020600020905b81548152906001019060200180831161037557829003601f168201915b5050505050915050919050565b60008060008673ffffffffffffffffffffffffffffffffffffffff1673ffffffffffffffffffffffffffffffffffffffff1681526020019081526020016000209050838160000190805190602001906103f9929190610f91565b5082816001019080519060200190610412929190610f91565b508181600201908051906020019061042b929190610f91565b5060018160030160006101000a81548160ff02191690831515021790555060008160050160008773ffffffffffffffffffffffffffffffffffffffff1673ffffffffffffffffffffffffffffffffffffffff16815260200190815260200160002060006101000a81548160ff02191690831515021790555060008160050160003373ffffffffffffffffffffffffffffffffffffffff1673ffffffffffffffffffffffffffffffffffffffff16815260200190815260200160002060006101000a81548160ff02191690831515021790555060008160030160016101000a81548160ff021916908315150217905550338160030160026101000a81548173ffffffffffffffffffffffffffffffffffffffff021916908373ffffffffffffffffffffffffffffffffffffffff160217905550848160040160006101000a81548173ffffffffffffffffffffffffffffffffffffffff021916908373ffffffffffffffffffffffffffffffffffffffff160217905550600160008154809291906105b390611682565b91905055507f71e17757911585ce418cab4b3b5362e8ae7ee1fd6415e52280c2dab8ca2321c533868686866040516105ef959493929190611303565b60405180910390a15050505050565b6000806000808473ffffffffffffffffffffffffffffffffffffffff1673ffffffffffffffffffffffffffffffffffffffff16815260200190815260200160002090508060030160009054906101000a900460ff16610692576040517f08c379a0000000000000000000000000000000000000000000000000000000008152600401610689906114c8565b60405180910390fd5b8060030160019054906101000a900460ff16915050919050565b60008060008373ffffffffffffffffffffffffffffffffffffffff1673ffffffffffffffffffffffffffffffffffffffff16815260200190815260200160002090508060030160009054906101000a900460ff1661073f576040517f08c379a0000000000000000000000000000000000000000000000000000000008152600401610736906114c8565b60405180910390fd5b8060050160003373ffffffffffffffffffffffffffffffffffffffff1673ffffffffffffffffffffffffffffffffffffffff16815260200190815260200160002060009054906101000a900460ff16156107ce576040517f08c379a00000000000000000000000000000000000000000000000000000000081526004016107c5906114e8565b60405180910390fd5b600254341015610813576040517f08c379a000000000000000000000000000000000000000000000000000000000815260040161080a90611408565b60405180910390fd5b60018160050160003373ffffffffffffffffffffffffffffffffffffffff1673ffffffffffffffffffffffffffffffffffffffff16815260200190815260200160002060006101000a81548160ff0219169083151502179055503373ffffffffffffffffffffffffffffffffffffffff167f80a172a50d2d590cbfe43add54091be0ca1cd18310fec6b91bd4f6aceff17c6f3384346040516108b79392919061136b565b60405180910390a25050565b60008060008373ffffffffffffffffffffffffffffffffffffffff1673ffffffffffffffffffffffffffffffffffffffff16815260200190815260200160002090508060030160009054906101000a900460ff16610956576040517f08c379a000000000000000000000000000000000000000000000000000000000815260040161094d906114c8565b60405180910390fd5b60018160030160016101000a81548160ff0219169083151502179055505050565b606060008060008473ffffffffffffffffffffffffffffffffffffffff1673ffffffffffffffffffffffffffffffffffffffff16815260200190815260200160002090508060030160009054906101000a900460ff16610a0c576040517f08c379a0000000000000000000000000000000000000000000000000000000008152600401610a03906114c8565b60405180910390fd5b806000018054610a1b9061161f565b80601f0160208091040260200160405190810160405280929190818152602001828054610a479061161f565b8015610a945780601f10610a6957610100808354040283529160200191610a94565b820191906000526020600020905b815481529060010190602001808311610a7757829003601f168201915b5050505050915050919050565b60015481565b60008060008373ffffffffffffffffffffffffffffffffffffffff1673ffffffffffffffffffffffffffffffffffffffff16815260200190815260200160002090508060030160009054906101000a900460ff16610b3a576040517f08c379a0000000000000000000000000000000000000000000000000000000008152600401610b31906114c8565b60405180910390fd5b8060030160019054906101000a900460ff16610b8b576040517f08c379a0000000000000000000000000000000000000000000000000000000008152600401610b8290611468565b60405180910390fd5b8060050160003373ffffffffffffffffffffffffffffffffffffffff1673ffffffffffffffffffffffffffffffffffffffff16815260200190815260200160002060009054906101000a900460ff16610c19576040517f08c379a0000000000000000000000000000000000000000000000000000000008152600401610c1090611488565b60405180910390fd5b8060050160008373ffffffffffffffffffffffffffffffffffffffff1673ffffffffffffffffffffffffffffffffffffffff16815260200190815260200160002060009054906101000a900460ff16610ca7576040517f08c379a0000000000000000000000000000000000000000000000000000000008152600401610c9e90611428565b60405180910390fd5b8060060160003373ffffffffffffffffffffffffffffffffffffffff1673ffffffffffffffffffffffffffffffffffffffff16815260200190815260200160002060009054906101000a900460ff1615610d36576040517f08c379a0000000000000000000000000000000000000000000000000000000008152600401610d2d906114a8565b60405180910390fd5b8060060160008373ffffffffffffffffffffffffffffffffffffffff1673ffffffffffffffffffffffffffffffffffffffff16815260200190815260200160002060009054906101000a900460ff1615610dc5576040517f08c379a0000000000000000000000000000000000000000000000000000000008152600401610dbc90611448565b60405180910390fd5b60006002541115610f8d5760018160060160003373ffffffffffffffffffffffffffffffffffffffff1673ffffffffffffffffffffffffffffffffffffffff16815260200190815260200160002060006101000a81548160ff02191690831515021790555060018160060160008473ffffffffffffffffffffffffffffffffffffffff1673ffffffffffffffffffffffffffffffffffffffff16815260200190815260200160002060006101000a81548160ff0219169083151502179055503373ffffffffffffffffffffffffffffffffffffffff166108fc6002549081150290604051600060405180830381858888f19350505050158015610ecc573d6000803e3d6000fd5b508060040160009054906101000a900473ffffffffffffffffffffffffffffffffffffffff1673ffffffffffffffffffffffffffffffffffffffff166108fc6002549081150290604051600060405180830381858888f19350505050158015610f39573d6000803e3d6000fd5b503373ffffffffffffffffffffffffffffffffffffffff167ff753dc50d05a64ff1627aaaaaff0b5668014c8fa260555fa958e6445125f03dc83600254604051610f849291906113a2565b60405180910390a25b5050565b828054610f9d9061161f565b90600052602060002090601f016020900481019282610fbf5760008555611006565b82601f10610fd857805160ff1916838001178555611006565b82800160010185558215611006579182015b82811115611005578251825591602001919060010190610fea565b5b5090506110139190611017565b5090565b5b80821115611030576000816000905550600101611018565b5090565b600061104761104284611548565b611523565b90508281526020810184848401111561105f57600080fd5b61106a8482856115dd565b509392505050565b600081359050611081816118b1565b92915050565b600082601f83011261109857600080fd5b81356110a8848260208601611034565b91505092915050565b6000602082840312156110c357600080fd5b60006110d184828501611072565b91505092915050565b600080600080608085870312156110f057600080fd5b60006110fe87828801611072565b945050602085013567ffffffffffffffff81111561111b57600080fd5b61112787828801611087565b935050604085013567ffffffffffffffff81111561114457600080fd5b61115087828801611087565b925050606085013567ffffffffffffffff81111561116d57600080fd5b61117987828801611087565b91505092959194509250565b61118e81611595565b82525050565b61119d816115a7565b82525050565b60006111ae82611579565b6111b88185611584565b93506111c88185602086016115ec565b6111d181611758565b840191505092915050565b60006111e9601b83611584565b91506111f482611769565b602082019050919050565b600061120c601583611584565b915061121782611792565b602082019050919050565b600061122f601e83611584565b915061123a826117bb565b602082019050919050565b6000611252600a83611584565b915061125d826117e4565b602082019050919050565b6000611275601283611584565b91506112808261180d565b602082019050919050565b6000611298601b83611584565b91506112a382611836565b602082019050919050565b60006112bb601a83611584565b91506112c68261185f565b602082019050919050565b60006112de601583611584565b91506112e982611888565b602082019050919050565b6112fd816115d3565b82525050565b600060a0820190506113186000830188611185565b6113256020830187611185565b818103604083015261133781866111a3565b9050818103606083015261134b81856111a3565b9050818103608083015261135f81846111a3565b90509695505050505050565b60006060820190506113806000830186611185565b61138d6020830185611185565b61139a60408301846112f4565b949350505050565b60006040820190506113b76000830185611185565b6113c460208301846112f4565b9392505050565b60006020820190506113e06000830184611194565b92915050565b6000602082019050818103600083015261140081846111a3565b905092915050565b60006020820190508181036000830152611421816111dc565b9050919050565b60006020820190508181036000830152611441816111ff565b9050919050565b6000602082019050818103600083015261146181611222565b9050919050565b6000602082019050818103600083015261148181611245565b9050919050565b600060208201905081810360008301526114a181611268565b9050919050565b600060208201905081810360008301526114c18161128b565b9050919050565b600060208201905081810360008301526114e1816112ae565b9050919050565b60006020820190508181036000830152611501816112d1565b9050919050565b600060208201905061151d60008301846112f4565b92915050565b600061152d61153e565b90506115398282611651565b919050565b6000604051905090565b600067ffffffffffffffff82111561156357611562611729565b5b61156c82611758565b9050602081019050919050565b600081519050919050565b600082825260208201905092915050565b60006115a0826115b3565b9050919050565b60008115159050919050565b600073ffffffffffffffffffffffffffffffffffffffff82169050919050565b6000819050919050565b82818337600083830152505050565b60005b8381101561160a5780820151818401526020810190506115ef565b83811115611619576000848401525b50505050565b6000600282049050600182168061163757607f821691505b6020821081141561164b5761164a6116fa565b5b50919050565b61165a82611758565b810181811067ffffffffffffffff8211171561167957611678611729565b5b80604052505050565b600061168d826115d3565b91507fffffffffffffffffffffffffffffffffffffffffffffffffffffffffffffffff8214156116c0576116bf6116cb565b5b600182019050919050565b7f4e487b7100000000000000000000000000000000000000000000000000000000600052601160045260246000fd5b7f4e487b7100000000000000000000000000000000000000000000000000000000600052602260045260246000fd5b7f4e487b7100000000000000000000000000000000000000000000000000000000600052604160045260246000fd5b6000601f19601f8301169050919050565b7f496e73756666696369656e74206465706f73697420616d6f756e740000000000600082015250565b7f4f7468657220486176656e2774204465706f7369740000000000000000000000600082015250565b7f4f74686572204465706f73697420616c726561647920726566756e6465640000600082015250565b7f4861766e2774206d657400000000000000000000000000000000000000000000600082015250565b7f4d6520486176656e2774204465706f7369740000000000000000000000000000600082015250565b7f4d65204465706f73697420616c726561647920726566756e6465640000000000600082015250565b7f4170706f696e746d656e7420646f6573206e6f74206578697374000000000000600082015250565b7f416c726561647920676976656e20636f6e73656e740000000000000000000000600082015250565b6118ba81611595565b81146118c557600080fd5b5056fea2646970667358221220a360fbdfe365a811a020e691513fadfc7ee343bbc75d878d836f958b27ce15c864736f6c63430008010033",
  "linkReferences": {},
  "deployedLinkReferences": {}
}