{
    "_format": "hh-sol-artifact-1",
    "contractName": "AppointmentContract",
    "sourceName": "contracts/AppointmentContract.sol",
    "abi": [
        {
            "inputs": [
                {
                    "internalType": "uint256",
                    "name": "_depositAmount",
                    "type": "uint256"
                }
            ],
            "stateMutability": "nonpayable",
            "type": "constructor"
        },
        {
            "anonymous": false,
            "inputs": [
                {
                    "indexed": false,
                    "internalType": "address",
                    "name": "receiver",
                    "type": "address"
                },
                {
                    "indexed": true,
                    "internalType": "address",
                    "name": "participant",
                    "type": "address"
                },
                {
                    "indexed": false,
                    "internalType": "uint256",
                    "name": "depositAmount",
                    "type": "uint256"
                }
            ],
            "name": "AppointmentConsented",
            "type": "event"
        },
        {
            "anonymous": false,
            "inputs": [
                {
                    "indexed": false,
                    "internalType": "address",
                    "name": "receiver",
                    "type": "address"
                },
                {
                    "indexed": false,
                    "internalType": "string",
                    "name": "location",
                    "type": "string"
                },
                {
                    "indexed": false,
                    "internalType": "string",
                    "name": "date",
                    "type": "string"
                },
                {
                    "indexed": false,
                    "internalType": "string",
                    "name": "time",
                    "type": "string"
                }
            ],
            "name": "AppointmentCreated",
            "type": "event"
        },
        {
            "anonymous": false,
            "inputs": [
                {
                    "indexed": false,
                    "internalType": "address",
                    "name": "receiver",
                    "type": "address"
                },
                {
                    "indexed": true,
                    "internalType": "address",
                    "name": "participant",
                    "type": "address"
                },
                {
                    "indexed": false,
                    "internalType": "uint256",
                    "name": "depositAmount",
                    "type": "uint256"
                }
            ],
            "name": "DepositRefunded",
            "type": "event"
        },
        {
            "inputs": [],
            "name": "appointmentCount",
            "outputs": [
                {
                    "internalType": "uint256",
                    "name": "",
                    "type": "uint256"
                }
            ],
            "stateMutability": "view",
            "type": "function"
        },
        {
            "inputs": [
                {
                    "internalType": "address",
                    "name": "receiver",
                    "type": "address"
                },
                {
                    "internalType": "string",
                    "name": "_location",
                    "type": "string"
                },
                {
                    "internalType": "string",
                    "name": "_date",
                    "type": "string"
                },
                {
                    "internalType": "string",
                    "name": "_time",
                    "type": "string"
                }
            ],
            "name": "createAppointment",
            "outputs": [],
            "stateMutability": "nonpayable",
            "type": "function"
        },
        {
            "inputs": [],
            "name": "depositAmount",
            "outputs": [
                {
                    "internalType": "uint256",
                    "name": "",
                    "type": "uint256"
                }
            ],
            "stateMutability": "view",
            "type": "function"
        },
        {
            "inputs": [],
            "name": "getAppointmentCount",
            "outputs": [
                {
                    "internalType": "uint256",
                    "name": "",
                    "type": "uint256"
                }
            ],
            "stateMutability": "view",
            "type": "function"
        },
        {
            "inputs": [
                {
                    "internalType": "address",
                    "name": "receiver",
                    "type": "address"
                }
            ],
            "name": "getIsMet",
            "outputs": [
                {
                    "internalType": "bool",
                    "name": "",
                    "type": "bool"
                }
            ],
            "stateMutability": "view",
            "type": "function"
        },
        {
            "inputs": [
                {
                    "internalType": "address",
                    "name": "receiver",
                    "type": "address"
                }
            ],
            "name": "giveConsent",
            "outputs": [],
            "stateMutability": "payable",
            "type": "function"
        },
        {
            "inputs": [
                {
                    "internalType": "address",
                    "name": "receiver",
                    "type": "address"
                }
            ],
            "name": "refundDeposit",
            "outputs": [],
            "stateMutability": "nonpayable",
            "type": "function"
        },
        {
            "inputs": [
                {
                    "internalType": "address",
                    "name": "receiver",
                    "type": "address"
                }
            ],
            "name": "verifyMeet",
            "outputs": [],
            "stateMutability": "nonpayable",
            "type": "function"
        }
    ],
    "bytecode": "0x60806040523480156200001157600080fd5b506040516200166b3803806200166b83398181016040528101906200003791906200005c565b8060028190555050620000ac565b600081519050620000568162000092565b92915050565b6000602082840312156200006f57600080fd5b60006200007f8482850162000045565b91505092915050565b6000819050919050565b6200009d8162000088565b8114620000a957600080fd5b50565b6115af80620000bc6000396000f3fe60806040526004361061007b5760003560e01c8063799cb1c21161004e578063799cb1c21461013c578063b0043e3414610158578063eebc3fb214610181578063f1471676146101ac5761007b565b806329e4afbb14610080578063419759f5146100ab5780636469e970146100d65780636a02e2e8146100ff575b600080fd5b34801561008c57600080fd5b506100956101d5565b6040516100a291906111b9565b60405180910390f35b3480156100b757600080fd5b506100c06101df565b6040516100cd91906111b9565b60405180910390f35b3480156100e257600080fd5b506100fd60048036038101906100f89190610df2565b6101e5565b005b34801561010b57600080fd5b5061012660048036038101906101219190610dc9565b610442565b604051610133919061109e565b60405180910390f35b61015660048036038101906101519190610dc9565b6104f0565b005b34801561016457600080fd5b5061017f600480360381019061017a9190610dc9565b610705565b005b34801561018d57600080fd5b506101966107b9565b6040516101a391906111b9565b60405180910390f35b3480156101b857600080fd5b506101d360048036038101906101ce9190610dc9565b6107bf565b005b6000600154905090565b60025481565b60008060008673ffffffffffffffffffffffffffffffffffffffff1673ffffffffffffffffffffffffffffffffffffffff16815260200190815260200160002090508381600001908051906020019061023f929190610ca9565b5082816001019080519060200190610258929190610ca9565b5081816002019080519060200190610271929190610ca9565b5060018160030160006101000a81548160ff02191690831515021790555060008160050160008773ffffffffffffffffffffffffffffffffffffffff1673ffffffffffffffffffffffffffffffffffffffff16815260200190815260200160002060006101000a81548160ff02191690831515021790555060008160050160003373ffffffffffffffffffffffffffffffffffffffff1673ffffffffffffffffffffffffffffffffffffffff16815260200190815260200160002060006101000a81548160ff02191690831515021790555060008160030160016101000a81548160ff021916908315150217905550338160030160026101000a81548173ffffffffffffffffffffffffffffffffffffffff021916908373ffffffffffffffffffffffffffffffffffffffff160217905550848160040160006101000a81548173ffffffffffffffffffffffffffffffffffffffff021916908373ffffffffffffffffffffffffffffffffffffffff160217905550600160008154809291906103f990611333565b91905055507f05c5f96884c6e7ae6682704b8bf9b047176053ba0fe7e53fa42fe31f0174246585858585604051610433949392919061101b565b60405180910390a15050505050565b6000806000808473ffffffffffffffffffffffffffffffffffffffff1673ffffffffffffffffffffffffffffffffffffffff16815260200190815260200160002090508060030160009054906101000a900460ff166104d6576040517f08c379a00000000000000000000000000000000000000000000000000000000081526004016104cd90611179565b60405180910390fd5b8060030160019054906101000a900460ff16915050919050565b60008060008373ffffffffffffffffffffffffffffffffffffffff1673ffffffffffffffffffffffffffffffffffffffff16815260200190815260200160002090508060030160009054906101000a900460ff16610583576040517f08c379a000000000000000000000000000000000000000000000000000000000815260040161057a90611179565b60405180910390fd5b8060050160003373ffffffffffffffffffffffffffffffffffffffff1673ffffffffffffffffffffffffffffffffffffffff16815260200190815260200160002060009054906101000a900460ff1615610612576040517f08c379a000000000000000000000000000000000000000000000000000000000815260040161060990611199565b60405180910390fd5b600254341015610657576040517f08c379a000000000000000000000000000000000000000000000000000000000815260040161064e906110b9565b60405180910390fd5b60018160050160003373ffffffffffffffffffffffffffffffffffffffff1673ffffffffffffffffffffffffffffffffffffffff16815260200190815260200160002060006101000a81548160ff0219169083151502179055503373ffffffffffffffffffffffffffffffffffffffff167ff73fa7e6414eabcdc43a9b379e532083c4348eba0e9ea239ee5f960ba8d2962783346040516106f9929190611075565b60405180910390a25050565b60008060008373ffffffffffffffffffffffffffffffffffffffff1673ffffffffffffffffffffffffffffffffffffffff16815260200190815260200160002090508060030160009054906101000a900460ff16610798576040517f08c379a000000000000000000000000000000000000000000000000000000000815260040161078f90611179565b60405180910390fd5b60018160030160016101000a81548160ff0219169083151502179055505050565b60015481565b60008060008373ffffffffffffffffffffffffffffffffffffffff1673ffffffffffffffffffffffffffffffffffffffff16815260200190815260200160002090508060030160009054906101000a900460ff16610852576040517f08c379a000000000000000000000000000000000000000000000000000000000815260040161084990611179565b60405180910390fd5b8060030160019054906101000a900460ff166108a3576040517f08c379a000000000000000000000000000000000000000000000000000000000815260040161089a90611119565b60405180910390fd5b8060050160003373ffffffffffffffffffffffffffffffffffffffff1673ffffffffffffffffffffffffffffffffffffffff16815260200190815260200160002060009054906101000a900460ff16610931576040517f08c379a000000000000000000000000000000000000000000000000000000000815260040161092890611139565b60405180910390fd5b8060050160008373ffffffffffffffffffffffffffffffffffffffff1673ffffffffffffffffffffffffffffffffffffffff16815260200190815260200160002060009054906101000a900460ff166109bf576040517f08c379a00000000000000000000000000000000000000000000000000000000081526004016109b6906110d9565b60405180910390fd5b8060060160003373ffffffffffffffffffffffffffffffffffffffff1673ffffffffffffffffffffffffffffffffffffffff16815260200190815260200160002060009054906101000a900460ff1615610a4e576040517f08c379a0000000000000000000000000000000000000000000000000000000008152600401610a4590611159565b60405180910390fd5b8060060160008373ffffffffffffffffffffffffffffffffffffffff1673ffffffffffffffffffffffffffffffffffffffff16815260200190815260200160002060009054906101000a900460ff1615610add576040517f08c379a0000000000000000000000000000000000000000000000000000000008152600401610ad4906110f9565b60405180910390fd5b60006002541115610ca55760018160060160003373ffffffffffffffffffffffffffffffffffffffff1673ffffffffffffffffffffffffffffffffffffffff16815260200190815260200160002060006101000a81548160ff02191690831515021790555060018160060160008473ffffffffffffffffffffffffffffffffffffffff1673ffffffffffffffffffffffffffffffffffffffff16815260200190815260200160002060006101000a81548160ff0219169083151502179055503373ffffffffffffffffffffffffffffffffffffffff166108fc6002549081150290604051600060405180830381858888f19350505050158015610be4573d6000803e3d6000fd5b508060040160009054906101000a900473ffffffffffffffffffffffffffffffffffffffff1673ffffffffffffffffffffffffffffffffffffffff166108fc6002549081150290604051600060405180830381858888f19350505050158015610c51573d6000803e3d6000fd5b503373ffffffffffffffffffffffffffffffffffffffff167ff753dc50d05a64ff1627aaaaaff0b5668014c8fa260555fa958e6445125f03dc83600254604051610c9c929190611075565b60405180910390a25b5050565b828054610cb5906112d0565b90600052602060002090601f016020900481019282610cd75760008555610d1e565b82601f10610cf057805160ff1916838001178555610d1e565b82800160010185558215610d1e579182015b82811115610d1d578251825591602001919060010190610d02565b5b509050610d2b9190610d2f565b5090565b5b80821115610d48576000816000905550600101610d30565b5090565b6000610d5f610d5a846111f9565b6111d4565b905082815260208101848484011115610d7757600080fd5b610d8284828561128e565b509392505050565b600081359050610d9981611562565b92915050565b600082601f830112610db057600080fd5b8135610dc0848260208601610d4c565b91505092915050565b600060208284031215610ddb57600080fd5b6000610de984828501610d8a565b91505092915050565b60008060008060808587031215610e0857600080fd5b6000610e1687828801610d8a565b945050602085013567ffffffffffffffff811115610e3357600080fd5b610e3f87828801610d9f565b935050604085013567ffffffffffffffff811115610e5c57600080fd5b610e6887828801610d9f565b925050606085013567ffffffffffffffff811115610e8557600080fd5b610e9187828801610d9f565b91505092959194509250565b610ea681611246565b82525050565b610eb581611258565b82525050565b6000610ec68261122a565b610ed08185611235565b9350610ee081856020860161129d565b610ee981611409565b840191505092915050565b6000610f01601b83611235565b9150610f0c8261141a565b602082019050919050565b6000610f24601583611235565b9150610f2f82611443565b602082019050919050565b6000610f47601e83611235565b9150610f528261146c565b602082019050919050565b6000610f6a600a83611235565b9150610f7582611495565b602082019050919050565b6000610f8d601283611235565b9150610f98826114be565b602082019050919050565b6000610fb0601b83611235565b9150610fbb826114e7565b602082019050919050565b6000610fd3601a83611235565b9150610fde82611510565b602082019050919050565b6000610ff6601583611235565b915061100182611539565b602082019050919050565b61101581611284565b82525050565b60006080820190506110306000830187610e9d565b81810360208301526110428186610ebb565b905081810360408301526110568185610ebb565b9050818103606083015261106a8184610ebb565b905095945050505050565b600060408201905061108a6000830185610e9d565b611097602083018461100c565b9392505050565b60006020820190506110b36000830184610eac565b92915050565b600060208201905081810360008301526110d281610ef4565b9050919050565b600060208201905081810360008301526110f281610f17565b9050919050565b6000602082019050818103600083015261111281610f3a565b9050919050565b6000602082019050818103600083015261113281610f5d565b9050919050565b6000602082019050818103600083015261115281610f80565b9050919050565b6000602082019050818103600083015261117281610fa3565b9050919050565b6000602082019050818103600083015261119281610fc6565b9050919050565b600060208201905081810360008301526111b281610fe9565b9050919050565b60006020820190506111ce600083018461100c565b92915050565b60006111de6111ef565b90506111ea8282611302565b919050565b6000604051905090565b600067ffffffffffffffff821115611214576112136113da565b5b61121d82611409565b9050602081019050919050565b600081519050919050565b600082825260208201905092915050565b600061125182611264565b9050919050565b60008115159050919050565b600073ffffffffffffffffffffffffffffffffffffffff82169050919050565b6000819050919050565b82818337600083830152505050565b60005b838110156112bb5780820151818401526020810190506112a0565b838111156112ca576000848401525b50505050565b600060028204905060018216806112e857607f821691505b602082108114156112fc576112fb6113ab565b5b50919050565b61130b82611409565b810181811067ffffffffffffffff8211171561132a576113296113da565b5b80604052505050565b600061133e82611284565b91507fffffffffffffffffffffffffffffffffffffffffffffffffffffffffffffffff8214156113715761137061137c565b5b600182019050919050565b7f4e487b7100000000000000000000000000000000000000000000000000000000600052601160045260246000fd5b7f4e487b7100000000000000000000000000000000000000000000000000000000600052602260045260246000fd5b7f4e487b7100000000000000000000000000000000000000000000000000000000600052604160045260246000fd5b6000601f19601f8301169050919050565b7f496e73756666696369656e74206465706f73697420616d6f756e740000000000600082015250565b7f4f7468657220486176656e2774204465706f7369740000000000000000000000600082015250565b7f4f74686572204465706f73697420616c726561647920726566756e6465640000600082015250565b7f4861766e2774206d657400000000000000000000000000000000000000000000600082015250565b7f4d6520486176656e2774204465706f7369740000000000000000000000000000600082015250565b7f4d65204465706f73697420616c726561647920726566756e6465640000000000600082015250565b7f4170706f696e746d656e7420646f6573206e6f74206578697374000000000000600082015250565b7f416c726561647920676976656e20636f6e73656e740000000000000000000000600082015250565b61156b81611246565b811461157657600080fd5b5056fea2646970667358221220a1236d3f7c5f48ac7a5e78b9f018bdbcfc3fdd78852b881770e819e1aff0f2fc64736f6c63430008010033",
    "linkReferences": {},
    "deployedLinkReferences": {}
}