{
  "_format": "hh-sol-artifact-1",
  "contractName": "MyNFT",
  "sourceName": "contracts/MyNFT.sol",
  "abi": [
    {
      "inputs": [],
      "stateMutability": "nonpayable",
      "type": "constructor"
    },
    {
      "anonymous": false,
      "inputs": [
        {
          "indexed": true,
          "internalType": "address",
          "name": "owner",
          "type": "address"
        },
        {
          "indexed": true,
          "internalType": "address",
          "name": "approved",
          "type": "address"
        },
        {
          "indexed": true,
          "internalType": "uint256",
          "name": "tokenId",
          "type": "uint256"
        }
      ],
      "name": "Approval",
      "type": "event"
    },
    {
      "anonymous": false,
      "inputs": [
        {
          "indexed": true,
          "internalType": "address",
          "name": "owner",
          "type": "address"
        },
        {
          "indexed": true,
          "internalType": "address",
          "name": "operator",
          "type": "address"
        },
        {
          "indexed": false,
          "internalType": "bool",
          "name": "approved",
          "type": "bool"
        }
      ],
      "name": "ApprovalForAll",
      "type": "event"
    },
    {
      "anonymous": false,
      "inputs": [
        {
          "indexed": false,
          "internalType": "uint256",
          "name": "tokenId",
          "type": "uint256"
        },
        {
          "indexed": false,
          "internalType": "address",
          "name": "user",
          "type": "address"
        }
      ],
      "name": "DislikeEvent",
      "type": "event"
    },
    {
      "anonymous": false,
      "inputs": [
        {
          "indexed": false,
          "internalType": "uint256",
          "name": "tokenId",
          "type": "uint256"
        },
        {
          "indexed": false,
          "internalType": "address",
          "name": "user",
          "type": "address"
        }
      ],
      "name": "LikeEvent",
      "type": "event"
    },
    {
      "anonymous": false,
      "inputs": [
        {
          "indexed": false,
          "internalType": "uint256",
          "name": "newItemId",
          "type": "uint256"
        },
        {
          "indexed": false,
          "internalType": "string",
          "name": "tokenURI",
          "type": "string"
        }
      ],
      "name": "MintEvent",
      "type": "event"
    },
    {
      "anonymous": false,
      "inputs": [
        {
          "indexed": true,
          "internalType": "address",
          "name": "previousOwner",
          "type": "address"
        },
        {
          "indexed": true,
          "internalType": "address",
          "name": "newOwner",
          "type": "address"
        }
      ],
      "name": "OwnershipTransferred",
      "type": "event"
    },
    {
      "anonymous": false,
      "inputs": [
        {
          "indexed": true,
          "internalType": "address",
          "name": "from",
          "type": "address"
        },
        {
          "indexed": true,
          "internalType": "address",
          "name": "to",
          "type": "address"
        },
        {
          "indexed": true,
          "internalType": "uint256",
          "name": "tokenId",
          "type": "uint256"
        }
      ],
      "name": "Transfer",
      "type": "event"
    },
    {
      "inputs": [
        {
          "internalType": "uint256",
          "name": "tokenId",
          "type": "uint256"
        },
        {
          "internalType": "address",
          "name": "user",
          "type": "address"
        }
      ],
      "name": "addDislike",
      "outputs": [],
      "stateMutability": "nonpayable",
      "type": "function"
    },
    {
      "inputs": [
        {
          "internalType": "uint256",
          "name": "tokenId",
          "type": "uint256"
        },
        {
          "internalType": "address",
          "name": "user",
          "type": "address"
        }
      ],
      "name": "addLike",
      "outputs": [],
      "stateMutability": "nonpayable",
      "type": "function"
    },
    {
      "inputs": [
        {
          "internalType": "address",
          "name": "to",
          "type": "address"
        },
        {
          "internalType": "uint256",
          "name": "tokenId",
          "type": "uint256"
        }
      ],
      "name": "approve",
      "outputs": [],
      "stateMutability": "nonpayable",
      "type": "function"
    },
    {
      "inputs": [
        {
          "internalType": "address",
          "name": "owner",
          "type": "address"
        }
      ],
      "name": "balanceOf",
      "outputs": [
        {
          "internalType": "uint256",
          "name": "",
          "type": "uint256"
        }
      ],
      "stateMutability": "view",
      "type": "function"
    },
    {
      "inputs": [
        {
          "internalType": "uint256",
          "name": "tokenId",
          "type": "uint256"
        }
      ],
      "name": "getApproved",
      "outputs": [
        {
          "internalType": "address",
          "name": "",
          "type": "address"
        }
      ],
      "stateMutability": "view",
      "type": "function"
    },
    {
      "inputs": [
        {
          "internalType": "uint256",
          "name": "tokenId",
          "type": "uint256"
        }
      ],
      "name": "getDislikes",
      "outputs": [
        {
          "internalType": "address[]",
          "name": "",
          "type": "address[]"
        }
      ],
      "stateMutability": "view",
      "type": "function"
    },
    {
      "inputs": [
        {
          "internalType": "uint256",
          "name": "tokenId",
          "type": "uint256"
        }
      ],
      "name": "getLikes",
      "outputs": [
        {
          "internalType": "address[]",
          "name": "",
          "type": "address[]"
        }
      ],
      "stateMutability": "view",
      "type": "function"
    },
    {
      "inputs": [
        {
          "internalType": "address",
          "name": "owner",
          "type": "address"
        },
        {
          "internalType": "address",
          "name": "operator",
          "type": "address"
        }
      ],
      "name": "isApprovedForAll",
      "outputs": [
        {
          "internalType": "bool",
          "name": "",
          "type": "bool"
        }
      ],
      "stateMutability": "view",
      "type": "function"
    },
    {
      "inputs": [
        {
          "internalType": "address",
          "name": "user",
          "type": "address"
        },
        {
          "internalType": "string",
          "name": "_tokenURI",
          "type": "string"
        }
      ],
      "name": "mintProfile",
      "outputs": [
        {
          "internalType": "uint256",
          "name": "",
          "type": "uint256"
        }
      ],
      "stateMutability": "nonpayable",
      "type": "function"
    },
    {
      "inputs": [],
      "name": "name",
      "outputs": [
        {
          "internalType": "string",
          "name": "",
          "type": "string"
        }
      ],
      "stateMutability": "view",
      "type": "function"
    },
    {
      "inputs": [],
      "name": "owner",
      "outputs": [
        {
          "internalType": "address",
          "name": "",
          "type": "address"
        }
      ],
      "stateMutability": "view",
      "type": "function"
    },
    {
      "inputs": [
        {
          "internalType": "uint256",
          "name": "tokenId",
          "type": "uint256"
        }
      ],
      "name": "ownerOf",
      "outputs": [
        {
          "internalType": "address",
          "name": "",
          "type": "address"
        }
      ],
      "stateMutability": "view",
      "type": "function"
    },
    {
      "inputs": [],
      "name": "renounceOwnership",
      "outputs": [],
      "stateMutability": "nonpayable",
      "type": "function"
    },
    {
      "inputs": [
        {
          "internalType": "address",
          "name": "from",
          "type": "address"
        },
        {
          "internalType": "address",
          "name": "to",
          "type": "address"
        },
        {
          "internalType": "uint256",
          "name": "tokenId",
          "type": "uint256"
        }
      ],
      "name": "safeTransferFrom",
      "outputs": [],
      "stateMutability": "nonpayable",
      "type": "function"
    },
    {
      "inputs": [
        {
          "internalType": "address",
          "name": "from",
          "type": "address"
        },
        {
          "internalType": "address",
          "name": "to",
          "type": "address"
        },
        {
          "internalType": "uint256",
          "name": "tokenId",
          "type": "uint256"
        },
        {
          "internalType": "bytes",
          "name": "data",
          "type": "bytes"
        }
      ],
      "name": "safeTransferFrom",
      "outputs": [],
      "stateMutability": "nonpayable",
      "type": "function"
    },
    {
      "inputs": [
        {
          "internalType": "address",
          "name": "operator",
          "type": "address"
        },
        {
          "internalType": "bool",
          "name": "approved",
          "type": "bool"
        }
      ],
      "name": "setApprovalForAll",
      "outputs": [],
      "stateMutability": "nonpayable",
      "type": "function"
    },
    {
      "inputs": [
        {
          "internalType": "bytes4",
          "name": "interfaceId",
          "type": "bytes4"
        }
      ],
      "name": "supportsInterface",
      "outputs": [
        {
          "internalType": "bool",
          "name": "",
          "type": "bool"
        }
      ],
      "stateMutability": "view",
      "type": "function"
    },
    {
      "inputs": [],
      "name": "symbol",
      "outputs": [
        {
          "internalType": "string",
          "name": "",
          "type": "string"
        }
      ],
      "stateMutability": "view",
      "type": "function"
    },
    {
      "inputs": [
        {
          "internalType": "uint256",
          "name": "index",
          "type": "uint256"
        }
      ],
      "name": "tokenByIndex",
      "outputs": [
        {
          "internalType": "uint256",
          "name": "",
          "type": "uint256"
        }
      ],
      "stateMutability": "view",
      "type": "function"
    },
    {
      "inputs": [
        {
          "internalType": "address",
          "name": "owner",
          "type": "address"
        },
        {
          "internalType": "uint256",
          "name": "index",
          "type": "uint256"
        }
      ],
      "name": "tokenOfOwnerByIndex",
      "outputs": [
        {
          "internalType": "uint256",
          "name": "",
          "type": "uint256"
        }
      ],
      "stateMutability": "view",
      "type": "function"
    },
    {
      "inputs": [
        {
          "internalType": "uint256",
          "name": "tokenId",
          "type": "uint256"
        }
      ],
      "name": "tokenURI",
      "outputs": [
        {
          "internalType": "string",
          "name": "",
          "type": "string"
        }
      ],
      "stateMutability": "view",
      "type": "function"
    },
    {
      "inputs": [
        {
          "internalType": "address",
          "name": "_owner",
          "type": "address"
        }
      ],
      "name": "tokensOfOwner",
      "outputs": [
        {
          "internalType": "uint256[]",
          "name": "",
          "type": "uint256[]"
        }
      ],
      "stateMutability": "view",
      "type": "function"
    },
    {
      "inputs": [],
      "name": "totalSupply",
      "outputs": [
        {
          "internalType": "uint256",
          "name": "",
          "type": "uint256"
        }
      ],
      "stateMutability": "view",
      "type": "function"
    },
    {
      "inputs": [
        {
          "internalType": "address",
          "name": "from",
          "type": "address"
        },
        {
          "internalType": "address",
          "name": "to",
          "type": "address"
        },
        {
          "internalType": "uint256",
          "name": "tokenId",
          "type": "uint256"
        }
      ],
      "name": "transferFrom",
      "outputs": [],
      "stateMutability": "nonpayable",
      "type": "function"
    },
    {
      "inputs": [
        {
          "internalType": "address",
          "name": "newOwner",
          "type": "address"
        }
      ],
      "name": "transferOwnership",
      "outputs": [],
      "stateMutability": "nonpayable",
      "type": "function"
    }
  ],
  "bytecode": "0x60806040523480156200001157600080fd5b506040518060400160405280600581526020017f4d794e46540000000000000000000000000000000000000000000000000000008152506040518060400160405280600381526020017f4e46540000000000000000000000000000000000000000000000000000000000815250816000908051906020019062000096929190620001a6565b508060019080519060200190620000af929190620001a6565b505050620000d2620000c6620000d860201b60201c565b620000e060201b60201c565b620002bb565b600033905090565b6000600b60009054906101000a900473ffffffffffffffffffffffffffffffffffffffff16905081600b60006101000a81548173ffffffffffffffffffffffffffffffffffffffff021916908373ffffffffffffffffffffffffffffffffffffffff1602179055508173ffffffffffffffffffffffffffffffffffffffff168173ffffffffffffffffffffffffffffffffffffffff167f8be0079c531659141344cd1fd0a4f28419497f9722a3daafe3b4186f6b6457e060405160405180910390a35050565b828054620001b49062000256565b90600052602060002090601f016020900481019282620001d8576000855562000224565b82601f10620001f357805160ff191683800117855562000224565b8280016001018555821562000224579182015b828111156200022357825182559160200191906001019062000206565b5b50905062000233919062000237565b5090565b5b808211156200025257600081600090555060010162000238565b5090565b600060028204905060018216806200026f57607f821691505b602082108114156200028657620002856200028c565b5b50919050565b7f4e487b7100000000000000000000000000000000000000000000000000000000600052602260045260246000fd5b613f5a80620002cb6000396000f3fe608060405234801561001057600080fd5b50600436106101735760003560e01c8063715018a6116100de578063a209081e11610097578063c87b56dd11610071578063c87b56dd1461046e578063debb24de1461049e578063e985e9c5146104ce578063f2fde38b146104fe57610173565b8063a209081e14610406578063a22cb46514610436578063b88d4fde1461045257610173565b8063715018a614610344578063741059b51461034e57806380a2febd1461037e5780638462151c1461039a5780638da5cb5b146103ca57806395d89b41146103e857610173565b80632f745c59116101305780632f745c591461024c5780633dd8d6661461027c57806342842e0e146102985780634f6ccce7146102b45780636352211e146102e457806370a082311461031457610173565b806301ffc9a71461017857806306fdde03146101a8578063081812fc146101c6578063095ea7b3146101f657806318160ddd1461021257806323b872dd14610230575b600080fd5b610192600480360381019061018d9190612de7565b61051a565b60405161019f91906133bd565b60405180910390f35b6101b061052c565b6040516101bd91906133d8565b60405180910390f35b6101e060048036038101906101db9190612e39565b6105be565b6040516101ed9190613312565b60405180910390f35b610210600480360381019061020b9190612dab565b610604565b005b61021a61071c565b604051610227919061363a565b60405180910390f35b61024a60048036038101906102459190612c51565b610729565b005b61026660048036038101906102619190612dab565b610789565b604051610273919061363a565b60405180910390f35b61029660048036038101906102919190612e62565b61082e565b005b6102b260048036038101906102ad9190612c51565b610927565b005b6102ce60048036038101906102c99190612e39565b610947565b6040516102db919061363a565b60405180910390f35b6102fe60048036038101906102f99190612e39565b6109de565b60405161030b9190613312565b60405180910390f35b61032e60048036038101906103299190612bec565b610a65565b60405161033b919061363a565b60405180910390f35b61034c610b1d565b005b61036860048036038101906103639190612d57565b610b31565b604051610375919061363a565b60405180910390f35b61039860048036038101906103939190612e62565b610ba2565b005b6103b460048036038101906103af9190612bec565b610c9b565b6040516103c1919061339b565b60405180910390f35b6103d2610d95565b6040516103df9190613312565b60405180910390f35b6103f0610dbf565b6040516103fd91906133d8565b60405180910390f35b610420600480360381019061041b9190612e39565b610e51565b60405161042d9190613379565b60405180910390f35b610450600480360381019061044b9190612d1b565b610f3a565b005b61046c60048036038101906104679190612ca0565b610f50565b005b61048860048036038101906104839190612e39565b610fb2565b60405161049591906133d8565b60405180910390f35b6104b860048036038101906104b39190612e39565b610fc4565b6040516104c59190613379565b60405180910390f35b6104e860048036038101906104e39190612c15565b6110ad565b6040516104f591906133bd565b60405180910390f35b61051860048036038101906105139190612bec565b611141565b005b6000610525826111c5565b9050919050565b60606000805461053b906138d4565b80601f0160208091040260200160405190810160405280929190818152602001828054610567906138d4565b80156105b45780601f10610589576101008083540402835291602001916105b4565b820191906000526020600020905b81548152906001019060200180831161059757829003601f168201915b5050505050905090565b60006105c98261123f565b6004600083815260200190815260200160002060009054906101000a900473ffffffffffffffffffffffffffffffffffffffff169050919050565b600061060f826109de565b90508073ffffffffffffffffffffffffffffffffffffffff168373ffffffffffffffffffffffffffffffffffffffff161415610680576040517f08c379a00000000000000000000000000000000000000000000000000000000081526004016106779061359a565b60405180910390fd5b8073ffffffffffffffffffffffffffffffffffffffff1661069f61128a565b73ffffffffffffffffffffffffffffffffffffffff1614806106ce57506106cd816106c861128a565b6110ad565b5b61070d576040517f08c379a0000000000000000000000000000000000000000000000000000000008152600401610704906135ba565b60405180910390fd5b6107178383611292565b505050565b6000600880549050905090565b61073a61073461128a565b8261134b565b610779576040517f08c379a0000000000000000000000000000000000000000000000000000000008152600401610770906133fa565b60405180910390fd5b6107848383836113e0565b505050565b600061079483610a65565b82106107d5576040517f08c379a00000000000000000000000000000000000000000000000000000000081526004016107cc9061341a565b60405180910390fd5b600660008473ffffffffffffffffffffffffffffffffffffffff1673ffffffffffffffffffffffffffffffffffffffff168152602001908152602001600020600083815260200190815260200160002054905092915050565b610837826116da565b610876576040517f08c379a000000000000000000000000000000000000000000000000000000000815260040161086d9061361a565b60405180910390fd5b600e6000838152602001908152602001600020819080600181540180825580915050600190039060005260206000200160009091909190916101000a81548173ffffffffffffffffffffffffffffffffffffffff021916908373ffffffffffffffffffffffffffffffffffffffff1602179055507f24de2c10864af98240bdb9b6853eb34baccc0bdd32eebc6e7223b9f5e737f861828260405161091b929190613655565b60405180910390a15050565b61094283838360405180602001604052806000815250610f50565b505050565b600061095161071c565b8210610992576040517f08c379a0000000000000000000000000000000000000000000000000000000008152600401610989906135da565b60405180910390fd5b600882815481106109cc577f4e487b7100000000000000000000000000000000000000000000000000000000600052603260045260246000fd5b90600052602060002001549050919050565b6000806109ea8361171b565b9050600073ffffffffffffffffffffffffffffffffffffffff168173ffffffffffffffffffffffffffffffffffffffff161415610a5c576040517f08c379a0000000000000000000000000000000000000000000000000000000008152600401610a539061357a565b60405180910390fd5b80915050919050565b60008073ffffffffffffffffffffffffffffffffffffffff168273ffffffffffffffffffffffffffffffffffffffff161415610ad6576040517f08c379a0000000000000000000000000000000000000000000000000000000008152600401610acd906134fa565b60405180910390fd5b600360008373ffffffffffffffffffffffffffffffffffffffff1673ffffffffffffffffffffffffffffffffffffffff168152602001908152602001600020549050919050565b610b25611758565b610b2f60006117d6565b565b6000610b3d600c61189c565b6000610b49600c6118b2565b9050610b5584826118c0565b610b5f8184611ade565b7f3879d4d06fd26ee5554762f3538b801c91d2499aa09ae90059af807fdc3ecb6e8184604051610b9092919061367e565b60405180910390a18091505092915050565b610bab826116da565b610bea576040517f08c379a0000000000000000000000000000000000000000000000000000000008152600401610be19061361a565b60405180910390fd5b600d6000838152602001908152602001600020819080600181540180825580915050600190039060005260206000200160009091909190916101000a81548173ffffffffffffffffffffffffffffffffffffffff021916908373ffffffffffffffffffffffffffffffffffffffff1602179055507ff8512a2837e3f4df2c4498012e4c80aa3dac7937358adf8322cf71bbbdc25c938282604051610c8f929190613655565b60405180910390a15050565b60606000610ca883610a65565b905060008167ffffffffffffffff811115610cec577f4e487b7100000000000000000000000000000000000000000000000000000000600052604160045260246000fd5b604051908082528060200260200182016040528015610d1a5781602001602082028036833780820191505090505b50905060005b82811015610d8a57610d328582610789565b828281518110610d6b577f4e487b7100000000000000000000000000000000000000000000000000000000600052603260045260246000fd5b6020026020010181815250508080610d8290613937565b915050610d20565b508092505050919050565b6000600b60009054906101000a900473ffffffffffffffffffffffffffffffffffffffff16905090565b606060018054610dce906138d4565b80601f0160208091040260200160405190810160405280929190818152602001828054610dfa906138d4565b8015610e475780601f10610e1c57610100808354040283529160200191610e47565b820191906000526020600020905b815481529060010190602001808311610e2a57829003601f168201915b5050505050905090565b6060610e5c826116da565b610e9b576040517f08c379a0000000000000000000000000000000000000000000000000000000008152600401610e929061361a565b60405180910390fd5b600d6000838152602001908152602001600020805480602002602001604051908101604052809291908181526020018280548015610f2e57602002820191906000526020600020905b8160009054906101000a900473ffffffffffffffffffffffffffffffffffffffff1673ffffffffffffffffffffffffffffffffffffffff1681526020019060010190808311610ee4575b50505050509050919050565b610f4c610f4561128a565b8383611b52565b5050565b610f61610f5b61128a565b8361134b565b610fa0576040517f08c379a0000000000000000000000000000000000000000000000000000000008152600401610f97906133fa565b60405180910390fd5b610fac84848484611cbf565b50505050565b6060610fbd82611d1b565b9050919050565b6060610fcf826116da565b61100e576040517f08c379a00000000000000000000000000000000000000000000000000000000081526004016110059061361a565b60405180910390fd5b600e60008381526020019081526020016000208054806020026020016040519081016040528092919081815260200182805480156110a157602002820191906000526020600020905b8160009054906101000a900473ffffffffffffffffffffffffffffffffffffffff1673ffffffffffffffffffffffffffffffffffffffff1681526020019060010190808311611057575b50505050509050919050565b6000600560008473ffffffffffffffffffffffffffffffffffffffff1673ffffffffffffffffffffffffffffffffffffffff16815260200190815260200160002060008373ffffffffffffffffffffffffffffffffffffffff1673ffffffffffffffffffffffffffffffffffffffff16815260200190815260200160002060009054906101000a900460ff16905092915050565b611149611758565b600073ffffffffffffffffffffffffffffffffffffffff168173ffffffffffffffffffffffffffffffffffffffff1614156111b9576040517f08c379a00000000000000000000000000000000000000000000000000000000081526004016111b09061345a565b60405180910390fd5b6111c2816117d6565b50565b60007f780e9d63000000000000000000000000000000000000000000000000000000007bffffffffffffffffffffffffffffffffffffffffffffffffffffffff1916827bffffffffffffffffffffffffffffffffffffffffffffffffffffffff19161480611238575061123782611e2e565b5b9050919050565b611248816116da565b611287576040517f08c379a000000000000000000000000000000000000000000000000000000000815260040161127e9061357a565b60405180910390fd5b50565b600033905090565b816004600083815260200190815260200160002060006101000a81548173ffffffffffffffffffffffffffffffffffffffff021916908373ffffffffffffffffffffffffffffffffffffffff160217905550808273ffffffffffffffffffffffffffffffffffffffff16611305836109de565b73ffffffffffffffffffffffffffffffffffffffff167f8c5be1e5ebec7d5bd14f71427d1e84f3dd0314c0f7b2291e5b200ac8c7c3b92560405160405180910390a45050565b600080611357836109de565b90508073ffffffffffffffffffffffffffffffffffffffff168473ffffffffffffffffffffffffffffffffffffffff161480611399575061139881856110ad565b5b806113d757508373ffffffffffffffffffffffffffffffffffffffff166113bf846105be565b73ffffffffffffffffffffffffffffffffffffffff16145b91505092915050565b8273ffffffffffffffffffffffffffffffffffffffff16611400826109de565b73ffffffffffffffffffffffffffffffffffffffff1614611456576040517f08c379a000000000000000000000000000000000000000000000000000000000815260040161144d9061347a565b60405180910390fd5b600073ffffffffffffffffffffffffffffffffffffffff168273ffffffffffffffffffffffffffffffffffffffff1614156114c6576040517f08c379a00000000000000000000000000000000000000000000000000000000081526004016114bd906134ba565b60405180910390fd5b6114d38383836001611f10565b8273ffffffffffffffffffffffffffffffffffffffff166114f3826109de565b73ffffffffffffffffffffffffffffffffffffffff1614611549576040517f08c379a00000000000000000000000000000000000000000000000000000000081526004016115409061347a565b60405180910390fd5b6004600082815260200190815260200160002060006101000a81549073ffffffffffffffffffffffffffffffffffffffff02191690556001600360008573ffffffffffffffffffffffffffffffffffffffff1673ffffffffffffffffffffffffffffffffffffffff168152602001908152602001600020600082825403925050819055506001600360008473ffffffffffffffffffffffffffffffffffffffff1673ffffffffffffffffffffffffffffffffffffffff16815260200190815260200160002060008282540192505081905550816002600083815260200190815260200160002060006101000a81548173ffffffffffffffffffffffffffffffffffffffff021916908373ffffffffffffffffffffffffffffffffffffffff160217905550808273ffffffffffffffffffffffffffffffffffffffff168473ffffffffffffffffffffffffffffffffffffffff167fddf252ad1be2c89b69c2b068fc378daa952ba7f163c4a11628f55a4df523b3ef60405160405180910390a46116d58383836001611f2e565b505050565b60008073ffffffffffffffffffffffffffffffffffffffff166116fc8361171b565b73ffffffffffffffffffffffffffffffffffffffff1614159050919050565b60006002600083815260200190815260200160002060009054906101000a900473ffffffffffffffffffffffffffffffffffffffff169050919050565b61176061128a565b73ffffffffffffffffffffffffffffffffffffffff1661177e610d95565b73ffffffffffffffffffffffffffffffffffffffff16146117d4576040517f08c379a00000000000000000000000000000000000000000000000000000000081526004016117cb9061355a565b60405180910390fd5b565b6000600b60009054906101000a900473ffffffffffffffffffffffffffffffffffffffff16905081600b60006101000a81548173ffffffffffffffffffffffffffffffffffffffff021916908373ffffffffffffffffffffffffffffffffffffffff1602179055508173ffffffffffffffffffffffffffffffffffffffff168173ffffffffffffffffffffffffffffffffffffffff167f8be0079c531659141344cd1fd0a4f28419497f9722a3daafe3b4186f6b6457e060405160405180910390a35050565b6001816000016000828254019250508190555050565b600081600001549050919050565b600073ffffffffffffffffffffffffffffffffffffffff168273ffffffffffffffffffffffffffffffffffffffff161415611930576040517f08c379a00000000000000000000000000000000000000000000000000000000081526004016119279061353a565b60405180910390fd5b611939816116da565b15611979576040517f08c379a00000000000000000000000000000000000000000000000000000000081526004016119709061349a565b60405180910390fd5b611987600083836001611f10565b611990816116da565b156119d0576040517f08c379a00000000000000000000000000000000000000000000000000000000081526004016119c79061349a565b60405180910390fd5b6001600360008473ffffffffffffffffffffffffffffffffffffffff1673ffffffffffffffffffffffffffffffffffffffff16815260200190815260200160002060008282540192505081905550816002600083815260200190815260200160002060006101000a81548173ffffffffffffffffffffffffffffffffffffffff021916908373ffffffffffffffffffffffffffffffffffffffff160217905550808273ffffffffffffffffffffffffffffffffffffffff16600073ffffffffffffffffffffffffffffffffffffffff167fddf252ad1be2c89b69c2b068fc378daa952ba7f163c4a11628f55a4df523b3ef60405160405180910390a4611ada600083836001611f2e565b5050565b611ae7826116da565b611b26576040517f08c379a0000000000000000000000000000000000000000000000000000000008152600401611b1d9061351a565b60405180910390fd5b80600a60008481526020019081526020016000209080519060200190611b4d929190612a10565b505050565b8173ffffffffffffffffffffffffffffffffffffffff168373ffffffffffffffffffffffffffffffffffffffff161415611bc1576040517f08c379a0000000000000000000000000000000000000000000000000000000008152600401611bb8906134da565b60405180910390fd5b80600560008573ffffffffffffffffffffffffffffffffffffffff1673ffffffffffffffffffffffffffffffffffffffff16815260200190815260200160002060008473ffffffffffffffffffffffffffffffffffffffff1673ffffffffffffffffffffffffffffffffffffffff16815260200190815260200160002060006101000a81548160ff0219169083151502179055508173ffffffffffffffffffffffffffffffffffffffff168373ffffffffffffffffffffffffffffffffffffffff167f17307eab39ab6107e8899845ad3d59bd9653f200f220920489ca2b5937696c3183604051611cb291906133bd565b60405180910390a3505050565b611cca8484846113e0565b611cd684848484611f34565b611d15576040517f08c379a0000000000000000000000000000000000000000000000000000000008152600401611d0c9061343a565b60405180910390fd5b50505050565b6060611d268261123f565b6000600a60008481526020019081526020016000208054611d46906138d4565b80601f0160208091040260200160405190810160405280929190818152602001828054611d72906138d4565b8015611dbf5780601f10611d9457610100808354040283529160200191611dbf565b820191906000526020600020905b815481529060010190602001808311611da257829003601f168201915b505050505090506000611dd06120cb565b9050600081511415611de6578192505050611e29565b600082511115611e1b578082604051602001611e039291906132ee565b60405160208183030381529060405292505050611e29565b611e24846120e2565b925050505b919050565b60007f80ac58cd000000000000000000000000000000000000000000000000000000007bffffffffffffffffffffffffffffffffffffffffffffffffffffffff1916827bffffffffffffffffffffffffffffffffffffffffffffffffffffffff19161480611ef957507f5b5e139f000000000000000000000000000000000000000000000000000000007bffffffffffffffffffffffffffffffffffffffffffffffffffffffff1916827bffffffffffffffffffffffffffffffffffffffffffffffffffffffff1916145b80611f095750611f088261214a565b5b9050919050565b611f1c848484846121b4565b611f28848484846121b4565b50505050565b50505050565b6000611f558473ffffffffffffffffffffffffffffffffffffffff16612314565b156120be578373ffffffffffffffffffffffffffffffffffffffff1663150b7a02611f7e61128a565b8786866040518563ffffffff1660e01b8152600401611fa0949392919061332d565b602060405180830381600087803b158015611fba57600080fd5b505af1925050508015611feb57506040513d601f19601f82011682018060405250810190611fe89190612e10565b60015b61206e573d806000811461201b576040519150601f19603f3d011682016040523d82523d6000602084013e612020565b606091505b50600081511415612066576040517f08c379a000000000000000000000000000000000000000000000000000000000815260040161205d9061343a565b60405180910390fd5b805181602001fd5b63150b7a0260e01b7bffffffffffffffffffffffffffffffffffffffffffffffffffffffff1916817bffffffffffffffffffffffffffffffffffffffffffffffffffffffff1916149150506120c3565b600190505b949350505050565b606060405180602001604052806000815250905090565b60606120ed8261123f565b60006120f76120cb565b905060008151116121175760405180602001604052806000815250612142565b8061212184612337565b6040516020016121329291906132ee565b6040516020818303038152906040525b915050919050565b60007f01ffc9a7000000000000000000000000000000000000000000000000000000007bffffffffffffffffffffffffffffffffffffffffffffffffffffffff1916827bffffffffffffffffffffffffffffffffffffffffffffffffffffffff1916149050919050565b6121c08484848461245b565b6001811115612204576040517f08c379a00000000000000000000000000000000000000000000000000000000081526004016121fb906135fa565b60405180910390fd5b6000829050600073ffffffffffffffffffffffffffffffffffffffff168573ffffffffffffffffffffffffffffffffffffffff16141561224c5761224781612461565b61228b565b8373ffffffffffffffffffffffffffffffffffffffff168573ffffffffffffffffffffffffffffffffffffffff161461228a5761228985826124aa565b5b5b600073ffffffffffffffffffffffffffffffffffffffff168473ffffffffffffffffffffffffffffffffffffffff1614156122ce576122c981612617565b61230d565b8473ffffffffffffffffffffffffffffffffffffffff168473ffffffffffffffffffffffffffffffffffffffff161461230c5761230b848261275a565b5b5b5050505050565b6000808273ffffffffffffffffffffffffffffffffffffffff163b119050919050565b606060006001612346846127d9565b01905060008167ffffffffffffffff81111561238b577f4e487b7100000000000000000000000000000000000000000000000000000000600052604160045260246000fd5b6040519080825280601f01601f1916602001820160405280156123bd5781602001600182028036833780820191505090505b509050600082602001820190505b600115612450578080600190039150507f3031323334353637383961626364656600000000000000000000000000000000600a86061a8153600a858161243a577f4e487b7100000000000000000000000000000000000000000000000000000000600052601260045260246000fd5b049450600085141561244b57612450565b6123cb565b819350505050919050565b50505050565b6008805490506009600083815260200190815260200160002081905550600881908060018154018082558091505060019003906000526020600020016000909190919091505550565b600060016124b784610a65565b6124c191906137ea565b90506000600760008481526020019081526020016000205490508181146125a6576000600660008673ffffffffffffffffffffffffffffffffffffffff1673ffffffffffffffffffffffffffffffffffffffff168152602001908152602001600020600084815260200190815260200160002054905080600660008773ffffffffffffffffffffffffffffffffffffffff1673ffffffffffffffffffffffffffffffffffffffff168152602001908152602001600020600084815260200190815260200160002081905550816007600083815260200190815260200160002081905550505b6007600084815260200190815260200160002060009055600660008573ffffffffffffffffffffffffffffffffffffffff1673ffffffffffffffffffffffffffffffffffffffff16815260200190815260200160002060008381526020019081526020016000206000905550505050565b6000600160088054905061262b91906137ea565b9050600060096000848152602001908152602001600020549050600060088381548110612681577f4e487b7100000000000000000000000000000000000000000000000000000000600052603260045260246000fd5b9060005260206000200154905080600883815481106126c9577f4e487b7100000000000000000000000000000000000000000000000000000000600052603260045260246000fd5b90600052602060002001819055508160096000838152602001908152602001600020819055506009600085815260200190815260200160002060009055600880548061273e577f4e487b7100000000000000000000000000000000000000000000000000000000600052603160045260246000fd5b6001900381819060005260206000200160009055905550505050565b600061276583610a65565b905081600660008573ffffffffffffffffffffffffffffffffffffffff1673ffffffffffffffffffffffffffffffffffffffff168152602001908152602001600020600083815260200190815260200160002081905550806007600084815260200190815260200160002081905550505050565b600080600090507a184f03e93ff9f4daa797ed6e38ed64bf6a1f010000000000000000831061285d577a184f03e93ff9f4daa797ed6e38ed64bf6a1f0100000000000000008381612853577f4e487b7100000000000000000000000000000000000000000000000000000000600052601260045260246000fd5b0492506040810190505b6d04ee2d6d415b85acef810000000083106128c0576d04ee2d6d415b85acef810000000083816128b6577f4e487b7100000000000000000000000000000000000000000000000000000000600052601260045260246000fd5b0492506020810190505b662386f26fc10000831061291557662386f26fc10000838161290b577f4e487b7100000000000000000000000000000000000000000000000000000000600052601260045260246000fd5b0492506010810190505b6305f5e1008310612964576305f5e100838161295a577f4e487b7100000000000000000000000000000000000000000000000000000000600052601260045260246000fd5b0492506008810190505b61271083106129af5761271083816129a5577f4e487b7100000000000000000000000000000000000000000000000000000000600052601260045260246000fd5b0492506004810190505b606483106129f857606483816129ee577f4e487b7100000000000000000000000000000000000000000000000000000000600052601260045260246000fd5b0492506002810190505b600a8310612a07576001810190505b80915050919050565b828054612a1c906138d4565b90600052602060002090601f016020900481019282612a3e5760008555612a85565b82601f10612a5757805160ff1916838001178555612a85565b82800160010185558215612a85579182015b82811115612a84578251825591602001919060010190612a69565b5b509050612a929190612a96565b5090565b5b80821115612aaf576000816000905550600101612a97565b5090565b6000612ac6612ac1846136d3565b6136ae565b905082815260208101848484011115612ade57600080fd5b612ae9848285613892565b509392505050565b6000612b04612aff84613704565b6136ae565b905082815260208101848484011115612b1c57600080fd5b612b27848285613892565b509392505050565b600081359050612b3e81613ec8565b92915050565b600081359050612b5381613edf565b92915050565b600081359050612b6881613ef6565b92915050565b600081519050612b7d81613ef6565b92915050565b600082601f830112612b9457600080fd5b8135612ba4848260208601612ab3565b91505092915050565b600082601f830112612bbe57600080fd5b8135612bce848260208601612af1565b91505092915050565b600081359050612be681613f0d565b92915050565b600060208284031215612bfe57600080fd5b6000612c0c84828501612b2f565b91505092915050565b60008060408385031215612c2857600080fd5b6000612c3685828601612b2f565b9250506020612c4785828601612b2f565b9150509250929050565b600080600060608486031215612c6657600080fd5b6000612c7486828701612b2f565b9350506020612c8586828701612b2f565b9250506040612c9686828701612bd7565b9150509250925092565b60008060008060808587031215612cb657600080fd5b6000612cc487828801612b2f565b9450506020612cd587828801612b2f565b9350506040612ce687828801612bd7565b925050606085013567ffffffffffffffff811115612d0357600080fd5b612d0f87828801612b83565b91505092959194509250565b60008060408385031215612d2e57600080fd5b6000612d3c85828601612b2f565b9250506020612d4d85828601612b44565b9150509250929050565b60008060408385031215612d6a57600080fd5b6000612d7885828601612b2f565b925050602083013567ffffffffffffffff811115612d9557600080fd5b612da185828601612bad565b9150509250929050565b60008060408385031215612dbe57600080fd5b6000612dcc85828601612b2f565b9250506020612ddd85828601612bd7565b9150509250929050565b600060208284031215612df957600080fd5b6000612e0784828501612b59565b91505092915050565b600060208284031215612e2257600080fd5b6000612e3084828501612b6e565b91505092915050565b600060208284031215612e4b57600080fd5b6000612e5984828501612bd7565b91505092915050565b60008060408385031215612e7557600080fd5b6000612e8385828601612bd7565b9250506020612e9485828601612b2f565b9150509250929050565b6000612eaa8383612ece565b60208301905092915050565b6000612ec283836132d0565b60208301905092915050565b612ed78161381e565b82525050565b612ee68161381e565b82525050565b6000612ef782613755565b612f01818561379b565b9350612f0c83613735565b8060005b83811015612f3d578151612f248882612e9e565b9750612f2f83613781565b925050600181019050612f10565b5085935050505092915050565b6000612f5582613760565b612f5f81856137ac565b9350612f6a83613745565b8060005b83811015612f9b578151612f828882612eb6565b9750612f8d8361378e565b925050600181019050612f6e565b5085935050505092915050565b612fb181613830565b82525050565b6000612fc28261376b565b612fcc81856137bd565b9350612fdc8185602086016138a1565b612fe581613a0d565b840191505092915050565b6000612ffb82613776565b61300581856137ce565b93506130158185602086016138a1565b61301e81613a0d565b840191505092915050565b600061303482613776565b61303e81856137df565b935061304e8185602086016138a1565b80840191505092915050565b6000613067602d836137ce565b915061307282613a1e565b604082019050919050565b600061308a602b836137ce565b915061309582613a6d565b604082019050919050565b60006130ad6032836137ce565b91506130b882613abc565b604082019050919050565b60006130d06026836137ce565b91506130db82613b0b565b604082019050919050565b60006130f36025836137ce565b91506130fe82613b5a565b604082019050919050565b6000613116601c836137ce565b915061312182613ba9565b602082019050919050565b60006131396024836137ce565b915061314482613bd2565b604082019050919050565b600061315c6019836137ce565b915061316782613c21565b602082019050919050565b600061317f6029836137ce565b915061318a82613c4a565b604082019050919050565b60006131a2602e836137ce565b91506131ad82613c99565b604082019050919050565b60006131c56020836137ce565b91506131d082613ce8565b602082019050919050565b60006131e86020836137ce565b91506131f382613d11565b602082019050919050565b600061320b6018836137ce565b915061321682613d3a565b602082019050919050565b600061322e6021836137ce565b915061323982613d63565b604082019050919050565b6000613251603d836137ce565b915061325c82613db2565b604082019050919050565b6000613274602c836137ce565b915061327f82613e01565b604082019050919050565b60006132976035836137ce565b91506132a282613e50565b604082019050919050565b60006132ba6016836137ce565b91506132c582613e9f565b602082019050919050565b6132d981613888565b82525050565b6132e881613888565b82525050565b60006132fa8285613029565b91506133068284613029565b91508190509392505050565b60006020820190506133276000830184612edd565b92915050565b60006080820190506133426000830187612edd565b61334f6020830186612edd565b61335c60408301856132df565b818103606083015261336e8184612fb7565b905095945050505050565b600060208201905081810360008301526133938184612eec565b905092915050565b600060208201905081810360008301526133b58184612f4a565b905092915050565b60006020820190506133d26000830184612fa8565b92915050565b600060208201905081810360008301526133f28184612ff0565b905092915050565b600060208201905081810360008301526134138161305a565b9050919050565b600060208201905081810360008301526134338161307d565b9050919050565b60006020820190508181036000830152613453816130a0565b9050919050565b60006020820190508181036000830152613473816130c3565b9050919050565b60006020820190508181036000830152613493816130e6565b9050919050565b600060208201905081810360008301526134b381613109565b9050919050565b600060208201905081810360008301526134d38161312c565b9050919050565b600060208201905081810360008301526134f38161314f565b9050919050565b6000602082019050818103600083015261351381613172565b9050919050565b6000602082019050818103600083015261353381613195565b9050919050565b60006020820190508181036000830152613553816131b8565b9050919050565b60006020820190508181036000830152613573816131db565b9050919050565b60006020820190508181036000830152613593816131fe565b9050919050565b600060208201905081810360008301526135b381613221565b9050919050565b600060208201905081810360008301526135d381613244565b9050919050565b600060208201905081810360008301526135f381613267565b9050919050565b600060208201905081810360008301526136138161328a565b9050919050565b60006020820190508181036000830152613633816132ad565b9050919050565b600060208201905061364f60008301846132df565b92915050565b600060408201905061366a60008301856132df565b6136776020830184612edd565b9392505050565b600060408201905061369360008301856132df565b81810360208301526136a58184612ff0565b90509392505050565b60006136b86136c9565b90506136c48282613906565b919050565b6000604051905090565b600067ffffffffffffffff8211156136ee576136ed6139de565b5b6136f782613a0d565b9050602081019050919050565b600067ffffffffffffffff82111561371f5761371e6139de565b5b61372882613a0d565b9050602081019050919050565b6000819050602082019050919050565b6000819050602082019050919050565b600081519050919050565b600081519050919050565b600081519050919050565b600081519050919050565b6000602082019050919050565b6000602082019050919050565b600082825260208201905092915050565b600082825260208201905092915050565b600082825260208201905092915050565b600082825260208201905092915050565b600081905092915050565b60006137f582613888565b915061380083613888565b92508282101561381357613812613980565b5b828203905092915050565b600061382982613868565b9050919050565b60008115159050919050565b60007fffffffff0000000000000000000000000000000000000000000000000000000082169050919050565b600073ffffffffffffffffffffffffffffffffffffffff82169050919050565b6000819050919050565b82818337600083830152505050565b60005b838110156138bf5780820151818401526020810190506138a4565b838111156138ce576000848401525b50505050565b600060028204905060018216806138ec57607f821691505b60208210811415613900576138ff6139af565b5b50919050565b61390f82613a0d565b810181811067ffffffffffffffff8211171561392e5761392d6139de565b5b80604052505050565b600061394282613888565b91507fffffffffffffffffffffffffffffffffffffffffffffffffffffffffffffffff82141561397557613974613980565b5b600182019050919050565b7f4e487b7100000000000000000000000000000000000000000000000000000000600052601160045260246000fd5b7f4e487b7100000000000000000000000000000000000000000000000000000000600052602260045260246000fd5b7f4e487b7100000000000000000000000000000000000000000000000000000000600052604160045260246000fd5b6000601f19601f8301169050919050565b7f4552433732313a2063616c6c6572206973206e6f7420746f6b656e206f776e6560008201527f72206f7220617070726f76656400000000000000000000000000000000000000602082015250565b7f455243373231456e756d657261626c653a206f776e657220696e646578206f7560008201527f74206f6620626f756e6473000000000000000000000000000000000000000000602082015250565b7f4552433732313a207472616e7366657220746f206e6f6e20455243373231526560008201527f63656976657220696d706c656d656e7465720000000000000000000000000000602082015250565b7f4f776e61626c653a206e6577206f776e657220697320746865207a65726f206160008201527f6464726573730000000000000000000000000000000000000000000000000000602082015250565b7f4552433732313a207472616e736665722066726f6d20696e636f72726563742060008201527f6f776e6572000000000000000000000000000000000000000000000000000000602082015250565b7f4552433732313a20746f6b656e20616c7265616479206d696e74656400000000600082015250565b7f4552433732313a207472616e7366657220746f20746865207a65726f2061646460008201527f7265737300000000000000000000000000000000000000000000000000000000602082015250565b7f4552433732313a20617070726f766520746f2063616c6c657200000000000000600082015250565b7f4552433732313a2061646472657373207a65726f206973206e6f74206120766160008201527f6c6964206f776e65720000000000000000000000000000000000000000000000602082015250565b7f45524337323155524953746f726167653a2055524920736574206f66206e6f6e60008201527f6578697374656e7420746f6b656e000000000000000000000000000000000000602082015250565b7f4552433732313a206d696e7420746f20746865207a65726f2061646472657373600082015250565b7f4f776e61626c653a2063616c6c6572206973206e6f7420746865206f776e6572600082015250565b7f4552433732313a20696e76616c696420746f6b656e2049440000000000000000600082015250565b7f4552433732313a20617070726f76616c20746f2063757272656e74206f776e6560008201527f7200000000000000000000000000000000000000000000000000000000000000602082015250565b7f4552433732313a20617070726f76652063616c6c6572206973206e6f7420746f60008201527f6b656e206f776e6572206f7220617070726f76656420666f7220616c6c000000602082015250565b7f455243373231456e756d657261626c653a20676c6f62616c20696e646578206f60008201527f7574206f6620626f756e64730000000000000000000000000000000000000000602082015250565b7f455243373231456e756d657261626c653a20636f6e736563757469766520747260008201527f616e7366657273206e6f7420737570706f727465640000000000000000000000602082015250565b7f50726f66696c6520646f6573206e6f7420657869737400000000000000000000600082015250565b613ed18161381e565b8114613edc57600080fd5b50565b613ee881613830565b8114613ef357600080fd5b50565b613eff8161383c565b8114613f0a57600080fd5b50565b613f1681613888565b8114613f2157600080fd5b5056fea2646970667358221220e3826dadcf8834b1b662b938c45989ae9934eaca8dd6014cf8caf6d8d245861d64736f6c63430008010033",
  "linkReferences": {},
  "deployedLinkReferences": {}
}