{
    "_format": "hh-sol-artifact-1",
    "contractName": "MyNFT",
    "sourceName": "contracts/MyNFT.sol",
    "abi": [
        {
            "inputs": [],
            "stateMutability": "nonpayable",
            "type": "constructor"
        },
        {
            "anonymous": false,
            "inputs": [
                {
                    "indexed": true,
                    "internalType": "address",
                    "name": "owner",
                    "type": "address"
                },
                {
                    "indexed": true,
                    "internalType": "address",
                    "name": "approved",
                    "type": "address"
                },
                {
                    "indexed": true,
                    "internalType": "uint256",
                    "name": "tokenId",
                    "type": "uint256"
                }
            ],
            "name": "Approval",
            "type": "event"
        },
        {
            "anonymous": false,
            "inputs": [
                {
                    "indexed": true,
                    "internalType": "address",
                    "name": "owner",
                    "type": "address"
                },
                {
                    "indexed": true,
                    "internalType": "address",
                    "name": "operator",
                    "type": "address"
                },
                {
                    "indexed": false,
                    "internalType": "bool",
                    "name": "approved",
                    "type": "bool"
                }
            ],
            "name": "ApprovalForAll",
            "type": "event"
        },
        {
            "anonymous": false,
            "inputs": [
                {
                    "indexed": false,
                    "internalType": "uint256",
                    "name": "tokenId",
                    "type": "uint256"
                },
                {
                    "indexed": false,
                    "internalType": "address",
                    "name": "user",
                    "type": "address"
                }
            ],
            "name": "DislikeEvent",
            "type": "event"
        },
        {
            "anonymous": false,
            "inputs": [
                {
                    "indexed": false,
                    "internalType": "uint256",
                    "name": "tokenId",
                    "type": "uint256"
                },
                {
                    "indexed": false,
                    "internalType": "address",
                    "name": "user",
                    "type": "address"
                }
            ],
            "name": "LikeEvent",
            "type": "event"
        },
        {
            "anonymous": false,
            "inputs": [
                {
                    "indexed": false,
                    "internalType": "uint256",
                    "name": "newItemId",
                    "type": "uint256"
                },
                {
                    "indexed": false,
                    "internalType": "string",
                    "name": "tokenURI",
                    "type": "string"
                }
            ],
            "name": "MintEvent",
            "type": "event"
        },
        {
            "anonymous": false,
            "inputs": [
                {
                    "indexed": true,
                    "internalType": "address",
                    "name": "previousOwner",
                    "type": "address"
                },
                {
                    "indexed": true,
                    "internalType": "address",
                    "name": "newOwner",
                    "type": "address"
                }
            ],
            "name": "OwnershipTransferred",
            "type": "event"
        },
        {
            "anonymous": false,
            "inputs": [
                {
                    "indexed": true,
                    "internalType": "address",
                    "name": "from",
                    "type": "address"
                },
                {
                    "indexed": true,
                    "internalType": "address",
                    "name": "to",
                    "type": "address"
                },
                {
                    "indexed": true,
                    "internalType": "uint256",
                    "name": "tokenId",
                    "type": "uint256"
                }
            ],
            "name": "Transfer",
            "type": "event"
        },
        {
            "inputs": [
                {
                    "internalType": "uint256",
                    "name": "tokenId",
                    "type": "uint256"
                },
                {
                    "internalType": "address",
                    "name": "user",
                    "type": "address"
                }
            ],
            "name": "addDislike",
            "outputs": [],
            "stateMutability": "nonpayable",
            "type": "function"
        },
        {
            "inputs": [
                {
                    "internalType": "uint256",
                    "name": "tokenId",
                    "type": "uint256"
                },
                {
                    "internalType": "address",
                    "name": "user",
                    "type": "address"
                }
            ],
            "name": "addLike",
            "outputs": [],
            "stateMutability": "nonpayable",
            "type": "function"
        },
        {
            "inputs": [
                {
                    "internalType": "address",
                    "name": "to",
                    "type": "address"
                },
                {
                    "internalType": "uint256",
                    "name": "tokenId",
                    "type": "uint256"
                }
            ],
            "name": "approve",
            "outputs": [],
            "stateMutability": "nonpayable",
            "type": "function"
        },
        {
            "inputs": [
                {
                    "internalType": "address",
                    "name": "owner",
                    "type": "address"
                }
            ],
            "name": "balanceOf",
            "outputs": [
                {
                    "internalType": "uint256",
                    "name": "",
                    "type": "uint256"
                }
            ],
            "stateMutability": "view",
            "type": "function"
        },
        {
            "inputs": [
                {
                    "internalType": "uint256",
                    "name": "tokenId",
                    "type": "uint256"
                }
            ],
            "name": "getApproved",
            "outputs": [
                {
                    "internalType": "address",
                    "name": "",
                    "type": "address"
                }
            ],
            "stateMutability": "view",
            "type": "function"
        },
        {
            "inputs": [
                {
                    "internalType": "uint256",
                    "name": "tokenId",
                    "type": "uint256"
                }
            ],
            "name": "getDislikes",
            "outputs": [
                {
                    "internalType": "address[]",
                    "name": "",
                    "type": "address[]"
                }
            ],
            "stateMutability": "view",
            "type": "function"
        },
        {
            "inputs": [
                {
                    "internalType": "uint256",
                    "name": "tokenId",
                    "type": "uint256"
                }
            ],
            "name": "getLikes",
            "outputs": [
                {
                    "internalType": "address[]",
                    "name": "",
                    "type": "address[]"
                }
            ],
            "stateMutability": "view",
            "type": "function"
        },
        {
            "inputs": [
                {
                    "internalType": "address",
                    "name": "owner",
                    "type": "address"
                },
                {
                    "internalType": "address",
                    "name": "operator",
                    "type": "address"
                }
            ],
            "name": "isApprovedForAll",
            "outputs": [
                {
                    "internalType": "bool",
                    "name": "",
                    "type": "bool"
                }
            ],
            "stateMutability": "view",
            "type": "function"
        },
        {
            "inputs": [
                {
                    "internalType": "address",
                    "name": "user",
                    "type": "address"
                },
                {
                    "internalType": "string",
                    "name": "_tokenURI",
                    "type": "string"
                }
            ],
            "name": "mintProfile",
            "outputs": [
                {
                    "internalType": "uint256",
                    "name": "",
                    "type": "uint256"
                }
            ],
            "stateMutability": "nonpayable",
            "type": "function"
        },
        {
            "inputs": [],
            "name": "name",
            "outputs": [
                {
                    "internalType": "string",
                    "name": "",
                    "type": "string"
                }
            ],
            "stateMutability": "view",
            "type": "function"
        },
        {
            "inputs": [],
            "name": "owner",
            "outputs": [
                {
                    "internalType": "address",
                    "name": "",
                    "type": "address"
                }
            ],
            "stateMutability": "view",
            "type": "function"
        },
        {
            "inputs": [
                {
                    "internalType": "uint256",
                    "name": "tokenId",
                    "type": "uint256"
                }
            ],
            "name": "ownerOf",
            "outputs": [
                {
                    "internalType": "address",
                    "name": "",
                    "type": "address"
                }
            ],
            "stateMutability": "view",
            "type": "function"
        },
        {
            "inputs": [],
            "name": "renounceOwnership",
            "outputs": [],
            "stateMutability": "nonpayable",
            "type": "function"
        },
        {
            "inputs": [
                {
                    "internalType": "address",
                    "name": "from",
                    "type": "address"
                },
                {
                    "internalType": "address",
                    "name": "to",
                    "type": "address"
                },
                {
                    "internalType": "uint256",
                    "name": "tokenId",
                    "type": "uint256"
                }
            ],
            "name": "safeTransferFrom",
            "outputs": [],
            "stateMutability": "nonpayable",
            "type": "function"
        },
        {
            "inputs": [
                {
                    "internalType": "address",
                    "name": "from",
                    "type": "address"
                },
                {
                    "internalType": "address",
                    "name": "to",
                    "type": "address"
                },
                {
                    "internalType": "uint256",
                    "name": "tokenId",
                    "type": "uint256"
                },
                {
                    "internalType": "bytes",
                    "name": "data",
                    "type": "bytes"
                }
            ],
            "name": "safeTransferFrom",
            "outputs": [],
            "stateMutability": "nonpayable",
            "type": "function"
        },
        {
            "inputs": [
                {
                    "internalType": "address",
                    "name": "operator",
                    "type": "address"
                },
                {
                    "internalType": "bool",
                    "name": "approved",
                    "type": "bool"
                }
            ],
            "name": "setApprovalForAll",
            "outputs": [],
            "stateMutability": "nonpayable",
            "type": "function"
        },
        {
            "inputs": [
                {
                    "internalType": "bytes4",
                    "name": "interfaceId",
                    "type": "bytes4"
                }
            ],
            "name": "supportsInterface",
            "outputs": [
                {
                    "internalType": "bool",
                    "name": "",
                    "type": "bool"
                }
            ],
            "stateMutability": "view",
            "type": "function"
        },
        {
            "inputs": [],
            "name": "symbol",
            "outputs": [
                {
                    "internalType": "string",
                    "name": "",
                    "type": "string"
                }
            ],
            "stateMutability": "view",
            "type": "function"
        },
        {
            "inputs": [
                {
                    "internalType": "uint256",
                    "name": "index",
                    "type": "uint256"
                }
            ],
            "name": "tokenByIndex",
            "outputs": [
                {
                    "internalType": "uint256",
                    "name": "",
                    "type": "uint256"
                }
            ],
            "stateMutability": "view",
            "type": "function"
        },
        {
            "inputs": [
                {
                    "internalType": "address",
                    "name": "owner",
                    "type": "address"
                },
                {
                    "internalType": "uint256",
                    "name": "index",
                    "type": "uint256"
                }
            ],
            "name": "tokenOfOwnerByIndex",
            "outputs": [
                {
                    "internalType": "uint256",
                    "name": "",
                    "type": "uint256"
                }
            ],
            "stateMutability": "view",
            "type": "function"
        },
        {
            "inputs": [
                {
                    "internalType": "uint256",
                    "name": "tokenId",
                    "type": "uint256"
                }
            ],
            "name": "tokenURI",
            "outputs": [
                {
                    "internalType": "string",
                    "name": "",
                    "type": "string"
                }
            ],
            "stateMutability": "view",
            "type": "function"
        },
        {
            "inputs": [
                {
                    "internalType": "address",
                    "name": "_owner",
                    "type": "address"
                }
            ],
            "name": "tokensOfOwner",
            "outputs": [
                {
                    "internalType": "uint256[]",
                    "name": "",
                    "type": "uint256[]"
                }
            ],
            "stateMutability": "view",
            "type": "function"
        },
        {
            "inputs": [],
            "name": "totalSupply",
            "outputs": [
                {
                    "internalType": "uint256",
                    "name": "",
                    "type": "uint256"
                }
            ],
            "stateMutability": "view",
            "type": "function"
        },
        {
            "inputs": [
                {
                    "internalType": "address",
                    "name": "from",
                    "type": "address"
                },
                {
                    "internalType": "address",
                    "name": "to",
                    "type": "address"
                },
                {
                    "internalType": "uint256",
                    "name": "tokenId",
                    "type": "uint256"
                }
            ],
            "name": "transferFrom",
            "outputs": [],
            "stateMutability": "nonpayable",
            "type": "function"
        },
        {
            "inputs": [
                {
                    "internalType": "address",
                    "name": "newOwner",
                    "type": "address"
                }
            ],
            "name": "transferOwnership",
            "outputs": [],
            "stateMutability": "nonpayable",
            "type": "function"
        }
    ],
    "bytecode": "0x60806040523480156200001157600080fd5b506040518060400160405280600581526020017f4d794e46540000000000000000000000000000000000000000000000000000008152506040518060400160405280600381526020017f4e46540000000000000000000000000000000000000000000000000000000000815250816000908051906020019062000096929190620001a6565b508060019080519060200190620000af929190620001a6565b505050620000d2620000c6620000d860201b60201c565b620000e060201b60201c565b620002bb565b600033905090565b6000600b60009054906101000a900473ffffffffffffffffffffffffffffffffffffffff16905081600b60006101000a81548173ffffffffffffffffffffffffffffffffffffffff021916908373ffffffffffffffffffffffffffffffffffffffff1602179055508173ffffffffffffffffffffffffffffffffffffffff168173ffffffffffffffffffffffffffffffffffffffff167f8be0079c531659141344cd1fd0a4f28419497f9722a3daafe3b4186f6b6457e060405160405180910390a35050565b828054620001b49062000256565b90600052602060002090601f016020900481019282620001d8576000855562000224565b82601f10620001f357805160ff191683800117855562000224565b8280016001018555821562000224579182015b828111156200022357825182559160200191906001019062000206565b5b50905062000233919062000237565b5090565b5b808211156200025257600081600090555060010162000238565b5090565b600060028204905060018216806200026f57607f821691505b602082108114156200028657620002856200028c565b5b50919050565b7f4e487b7100000000000000000000000000000000000000000000000000000000600052602260045260246000fd5b613f6280620002cb6000396000f3fe608060405234801561001057600080fd5b50600436106101735760003560e01c8063715018a6116100de578063a209081e11610097578063c87b56dd11610071578063c87b56dd1461046e578063debb24de1461049e578063e985e9c5146104ce578063f2fde38b146104fe57610173565b8063a209081e14610406578063a22cb46514610436578063b88d4fde1461045257610173565b8063715018a614610344578063741059b51461034e57806380a2febd1461037e5780638462151c1461039a5780638da5cb5b146103ca57806395d89b41146103e857610173565b80632f745c59116101305780632f745c591461024c5780633dd8d6661461027c57806342842e0e146102985780634f6ccce7146102b45780636352211e146102e457806370a082311461031457610173565b806301ffc9a71461017857806306fdde03146101a8578063081812fc146101c6578063095ea7b3146101f657806318160ddd1461021257806323b872dd14610230575b600080fd5b610192600480360381019061018d9190612def565b61051a565b60405161019f91906133c5565b60405180910390f35b6101b061052c565b6040516101bd91906133e0565b60405180910390f35b6101e060048036038101906101db9190612e41565b6105be565b6040516101ed919061331a565b60405180910390f35b610210600480360381019061020b9190612db3565b610604565b005b61021a61071c565b6040516102279190613642565b60405180910390f35b61024a60048036038101906102459190612c59565b610729565b005b61026660048036038101906102619190612db3565b610789565b6040516102739190613642565b60405180910390f35b61029660048036038101906102919190612e6a565b61082e565b005b6102b260048036038101906102ad9190612c59565b610927565b005b6102ce60048036038101906102c99190612e41565b610947565b6040516102db9190613642565b60405180910390f35b6102fe60048036038101906102f99190612e41565b6109de565b60405161030b919061331a565b60405180910390f35b61032e60048036038101906103299190612bf4565b610a65565b60405161033b9190613642565b60405180910390f35b61034c610b1d565b005b61036860048036038101906103639190612d5f565b610b31565b6040516103759190613642565b60405180910390f35b61039860048036038101906103939190612e6a565b610baa565b005b6103b460048036038101906103af9190612bf4565b610ca3565b6040516103c191906133a3565b60405180910390f35b6103d2610d9d565b6040516103df919061331a565b60405180910390f35b6103f0610dc7565b6040516103fd91906133e0565b60405180910390f35b610420600480360381019061041b9190612e41565b610e59565b60405161042d9190613381565b60405180910390f35b610450600480360381019061044b9190612d23565b610f42565b005b61046c60048036038101906104679190612ca8565b610f58565b005b61048860048036038101906104839190612e41565b610fba565b60405161049591906133e0565b60405180910390f35b6104b860048036038101906104b39190612e41565b610fcc565b6040516104c59190613381565b60405180910390f35b6104e860048036038101906104e39190612c1d565b6110b5565b6040516104f591906133c5565b60405180910390f35b61051860048036038101906105139190612bf4565b611149565b005b6000610525826111cd565b9050919050565b60606000805461053b906138dc565b80601f0160208091040260200160405190810160405280929190818152602001828054610567906138dc565b80156105b45780601f10610589576101008083540402835291602001916105b4565b820191906000526020600020905b81548152906001019060200180831161059757829003601f168201915b5050505050905090565b60006105c982611247565b6004600083815260200190815260200160002060009054906101000a900473ffffffffffffffffffffffffffffffffffffffff169050919050565b600061060f826109de565b90508073ffffffffffffffffffffffffffffffffffffffff168373ffffffffffffffffffffffffffffffffffffffff161415610680576040517f08c379a0000000000000000000000000000000000000000000000000000000008152600401610677906135a2565b60405180910390fd5b8073ffffffffffffffffffffffffffffffffffffffff1661069f611292565b73ffffffffffffffffffffffffffffffffffffffff1614806106ce57506106cd816106c8611292565b6110b5565b5b61070d576040517f08c379a0000000000000000000000000000000000000000000000000000000008152600401610704906135c2565b60405180910390fd5b610717838361129a565b505050565b6000600880549050905090565b61073a610734611292565b82611353565b610779576040517f08c379a000000000000000000000000000000000000000000000000000000000815260040161077090613402565b60405180910390fd5b6107848383836113e8565b505050565b600061079483610a65565b82106107d5576040517f08c379a00000000000000000000000000000000000000000000000000000000081526004016107cc90613422565b60405180910390fd5b600660008473ffffffffffffffffffffffffffffffffffffffff1673ffffffffffffffffffffffffffffffffffffffff168152602001908152602001600020600083815260200190815260200160002054905092915050565b610837826116e2565b610876576040517f08c379a000000000000000000000000000000000000000000000000000000000815260040161086d90613622565b60405180910390fd5b600e6000838152602001908152602001600020819080600181540180825580915050600190039060005260206000200160009091909190916101000a81548173ffffffffffffffffffffffffffffffffffffffff021916908373ffffffffffffffffffffffffffffffffffffffff1602179055507f24de2c10864af98240bdb9b6853eb34baccc0bdd32eebc6e7223b9f5e737f861828260405161091b92919061365d565b60405180910390a15050565b61094283838360405180602001604052806000815250610f58565b505050565b600061095161071c565b8210610992576040517f08c379a0000000000000000000000000000000000000000000000000000000008152600401610989906135e2565b60405180910390fd5b600882815481106109cc577f4e487b7100000000000000000000000000000000000000000000000000000000600052603260045260246000fd5b90600052602060002001549050919050565b6000806109ea83611723565b9050600073ffffffffffffffffffffffffffffffffffffffff168173ffffffffffffffffffffffffffffffffffffffff161415610a5c576040517f08c379a0000000000000000000000000000000000000000000000000000000008152600401610a5390613582565b60405180910390fd5b80915050919050565b60008073ffffffffffffffffffffffffffffffffffffffff168273ffffffffffffffffffffffffffffffffffffffff161415610ad6576040517f08c379a0000000000000000000000000000000000000000000000000000000008152600401610acd90613502565b60405180910390fd5b600360008373ffffffffffffffffffffffffffffffffffffffff1673ffffffffffffffffffffffffffffffffffffffff168152602001908152602001600020549050919050565b610b25611760565b610b2f60006117de565b565b6000610b3b611760565b610b45600c6118a4565b6000610b51600c6118ba565b9050610b5d84826118c8565b610b678184611ae6565b7f3879d4d06fd26ee5554762f3538b801c91d2499aa09ae90059af807fdc3ecb6e8184604051610b98929190613686565b60405180910390a18091505092915050565b610bb3826116e2565b610bf2576040517f08c379a0000000000000000000000000000000000000000000000000000000008152600401610be990613622565b60405180910390fd5b600d6000838152602001908152602001600020819080600181540180825580915050600190039060005260206000200160009091909190916101000a81548173ffffffffffffffffffffffffffffffffffffffff021916908373ffffffffffffffffffffffffffffffffffffffff1602179055507ff8512a2837e3f4df2c4498012e4c80aa3dac7937358adf8322cf71bbbdc25c938282604051610c9792919061365d565b60405180910390a15050565b60606000610cb083610a65565b905060008167ffffffffffffffff811115610cf4577f4e487b7100000000000000000000000000000000000000000000000000000000600052604160045260246000fd5b604051908082528060200260200182016040528015610d225781602001602082028036833780820191505090505b50905060005b82811015610d9257610d3a8582610789565b828281518110610d73577f4e487b7100000000000000000000000000000000000000000000000000000000600052603260045260246000fd5b6020026020010181815250508080610d8a9061393f565b915050610d28565b508092505050919050565b6000600b60009054906101000a900473ffffffffffffffffffffffffffffffffffffffff16905090565b606060018054610dd6906138dc565b80601f0160208091040260200160405190810160405280929190818152602001828054610e02906138dc565b8015610e4f5780601f10610e2457610100808354040283529160200191610e4f565b820191906000526020600020905b815481529060010190602001808311610e3257829003601f168201915b5050505050905090565b6060610e64826116e2565b610ea3576040517f08c379a0000000000000000000000000000000000000000000000000000000008152600401610e9a90613622565b60405180910390fd5b600d6000838152602001908152602001600020805480602002602001604051908101604052809291908181526020018280548015610f3657602002820191906000526020600020905b8160009054906101000a900473ffffffffffffffffffffffffffffffffffffffff1673ffffffffffffffffffffffffffffffffffffffff1681526020019060010190808311610eec575b50505050509050919050565b610f54610f4d611292565b8383611b5a565b5050565b610f69610f63611292565b83611353565b610fa8576040517f08c379a0000000000000000000000000000000000000000000000000000000008152600401610f9f90613402565b60405180910390fd5b610fb484848484611cc7565b50505050565b6060610fc582611d23565b9050919050565b6060610fd7826116e2565b611016576040517f08c379a000000000000000000000000000000000000000000000000000000000815260040161100d90613622565b60405180910390fd5b600e60008381526020019081526020016000208054806020026020016040519081016040528092919081815260200182805480156110a957602002820191906000526020600020905b8160009054906101000a900473ffffffffffffffffffffffffffffffffffffffff1673ffffffffffffffffffffffffffffffffffffffff168152602001906001019080831161105f575b50505050509050919050565b6000600560008473ffffffffffffffffffffffffffffffffffffffff1673ffffffffffffffffffffffffffffffffffffffff16815260200190815260200160002060008373ffffffffffffffffffffffffffffffffffffffff1673ffffffffffffffffffffffffffffffffffffffff16815260200190815260200160002060009054906101000a900460ff16905092915050565b611151611760565b600073ffffffffffffffffffffffffffffffffffffffff168173ffffffffffffffffffffffffffffffffffffffff1614156111c1576040517f08c379a00000000000000000000000000000000000000000000000000000000081526004016111b890613462565b60405180910390fd5b6111ca816117de565b50565b60007f780e9d63000000000000000000000000000000000000000000000000000000007bffffffffffffffffffffffffffffffffffffffffffffffffffffffff1916827bffffffffffffffffffffffffffffffffffffffffffffffffffffffff19161480611240575061123f82611e36565b5b9050919050565b611250816116e2565b61128f576040517f08c379a000000000000000000000000000000000000000000000000000000000815260040161128690613582565b60405180910390fd5b50565b600033905090565b816004600083815260200190815260200160002060006101000a81548173ffffffffffffffffffffffffffffffffffffffff021916908373ffffffffffffffffffffffffffffffffffffffff160217905550808273ffffffffffffffffffffffffffffffffffffffff1661130d836109de565b73ffffffffffffffffffffffffffffffffffffffff167f8c5be1e5ebec7d5bd14f71427d1e84f3dd0314c0f7b2291e5b200ac8c7c3b92560405160405180910390a45050565b60008061135f836109de565b90508073ffffffffffffffffffffffffffffffffffffffff168473ffffffffffffffffffffffffffffffffffffffff1614806113a157506113a081856110b5565b5b806113df57508373ffffffffffffffffffffffffffffffffffffffff166113c7846105be565b73ffffffffffffffffffffffffffffffffffffffff16145b91505092915050565b8273ffffffffffffffffffffffffffffffffffffffff16611408826109de565b73ffffffffffffffffffffffffffffffffffffffff161461145e576040517f08c379a000000000000000000000000000000000000000000000000000000000815260040161145590613482565b60405180910390fd5b600073ffffffffffffffffffffffffffffffffffffffff168273ffffffffffffffffffffffffffffffffffffffff1614156114ce576040517f08c379a00000000000000000000000000000000000000000000000000000000081526004016114c5906134c2565b60405180910390fd5b6114db8383836001611f18565b8273ffffffffffffffffffffffffffffffffffffffff166114fb826109de565b73ffffffffffffffffffffffffffffffffffffffff1614611551576040517f08c379a000000000000000000000000000000000000000000000000000000000815260040161154890613482565b60405180910390fd5b6004600082815260200190815260200160002060006101000a81549073ffffffffffffffffffffffffffffffffffffffff02191690556001600360008573ffffffffffffffffffffffffffffffffffffffff1673ffffffffffffffffffffffffffffffffffffffff168152602001908152602001600020600082825403925050819055506001600360008473ffffffffffffffffffffffffffffffffffffffff1673ffffffffffffffffffffffffffffffffffffffff16815260200190815260200160002060008282540192505081905550816002600083815260200190815260200160002060006101000a81548173ffffffffffffffffffffffffffffffffffffffff021916908373ffffffffffffffffffffffffffffffffffffffff160217905550808273ffffffffffffffffffffffffffffffffffffffff168473ffffffffffffffffffffffffffffffffffffffff167fddf252ad1be2c89b69c2b068fc378daa952ba7f163c4a11628f55a4df523b3ef60405160405180910390a46116dd8383836001611f36565b505050565b60008073ffffffffffffffffffffffffffffffffffffffff1661170483611723565b73ffffffffffffffffffffffffffffffffffffffff1614159050919050565b60006002600083815260200190815260200160002060009054906101000a900473ffffffffffffffffffffffffffffffffffffffff169050919050565b611768611292565b73ffffffffffffffffffffffffffffffffffffffff16611786610d9d565b73ffffffffffffffffffffffffffffffffffffffff16146117dc576040517f08c379a00000000000000000000000000000000000000000000000000000000081526004016117d390613562565b60405180910390fd5b565b6000600b60009054906101000a900473ffffffffffffffffffffffffffffffffffffffff16905081600b60006101000a81548173ffffffffffffffffffffffffffffffffffffffff021916908373ffffffffffffffffffffffffffffffffffffffff1602179055508173ffffffffffffffffffffffffffffffffffffffff168173ffffffffffffffffffffffffffffffffffffffff167f8be0079c531659141344cd1fd0a4f28419497f9722a3daafe3b4186f6b6457e060405160405180910390a35050565b6001816000016000828254019250508190555050565b600081600001549050919050565b600073ffffffffffffffffffffffffffffffffffffffff168273ffffffffffffffffffffffffffffffffffffffff161415611938576040517f08c379a000000000000000000000000000000000000000000000000000000000815260040161192f90613542565b60405180910390fd5b611941816116e2565b15611981576040517f08c379a0000000000000000000000000000000000000000000000000000000008152600401611978906134a2565b60405180910390fd5b61198f600083836001611f18565b611998816116e2565b156119d8576040517f08c379a00000000000000000000000000000000000000000000000000000000081526004016119cf906134a2565b60405180910390fd5b6001600360008473ffffffffffffffffffffffffffffffffffffffff1673ffffffffffffffffffffffffffffffffffffffff16815260200190815260200160002060008282540192505081905550816002600083815260200190815260200160002060006101000a81548173ffffffffffffffffffffffffffffffffffffffff021916908373ffffffffffffffffffffffffffffffffffffffff160217905550808273ffffffffffffffffffffffffffffffffffffffff16600073ffffffffffffffffffffffffffffffffffffffff167fddf252ad1be2c89b69c2b068fc378daa952ba7f163c4a11628f55a4df523b3ef60405160405180910390a4611ae2600083836001611f36565b5050565b611aef826116e2565b611b2e576040517f08c379a0000000000000000000000000000000000000000000000000000000008152600401611b2590613522565b60405180910390fd5b80600a60008481526020019081526020016000209080519060200190611b55929190612a18565b505050565b8173ffffffffffffffffffffffffffffffffffffffff168373ffffffffffffffffffffffffffffffffffffffff161415611bc9576040517f08c379a0000000000000000000000000000000000000000000000000000000008152600401611bc0906134e2565b60405180910390fd5b80600560008573ffffffffffffffffffffffffffffffffffffffff1673ffffffffffffffffffffffffffffffffffffffff16815260200190815260200160002060008473ffffffffffffffffffffffffffffffffffffffff1673ffffffffffffffffffffffffffffffffffffffff16815260200190815260200160002060006101000a81548160ff0219169083151502179055508173ffffffffffffffffffffffffffffffffffffffff168373ffffffffffffffffffffffffffffffffffffffff167f17307eab39ab6107e8899845ad3d59bd9653f200f220920489ca2b5937696c3183604051611cba91906133c5565b60405180910390a3505050565b611cd28484846113e8565b611cde84848484611f3c565b611d1d576040517f08c379a0000000000000000000000000000000000000000000000000000000008152600401611d1490613442565b60405180910390fd5b50505050565b6060611d2e82611247565b6000600a60008481526020019081526020016000208054611d4e906138dc565b80601f0160208091040260200160405190810160405280929190818152602001828054611d7a906138dc565b8015611dc75780601f10611d9c57610100808354040283529160200191611dc7565b820191906000526020600020905b815481529060010190602001808311611daa57829003601f168201915b505050505090506000611dd86120d3565b9050600081511415611dee578192505050611e31565b600082511115611e23578082604051602001611e0b9291906132f6565b60405160208183030381529060405292505050611e31565b611e2c846120ea565b925050505b919050565b60007f80ac58cd000000000000000000000000000000000000000000000000000000007bffffffffffffffffffffffffffffffffffffffffffffffffffffffff1916827bffffffffffffffffffffffffffffffffffffffffffffffffffffffff19161480611f0157507f5b5e139f000000000000000000000000000000000000000000000000000000007bffffffffffffffffffffffffffffffffffffffffffffffffffffffff1916827bffffffffffffffffffffffffffffffffffffffffffffffffffffffff1916145b80611f115750611f1082612152565b5b9050919050565b611f24848484846121bc565b611f30848484846121bc565b50505050565b50505050565b6000611f5d8473ffffffffffffffffffffffffffffffffffffffff1661231c565b156120c6578373ffffffffffffffffffffffffffffffffffffffff1663150b7a02611f86611292565b8786866040518563ffffffff1660e01b8152600401611fa89493929190613335565b602060405180830381600087803b158015611fc257600080fd5b505af1925050508015611ff357506040513d601f19601f82011682018060405250810190611ff09190612e18565b60015b612076573d8060008114612023576040519150601f19603f3d011682016040523d82523d6000602084013e612028565b606091505b5060008151141561206e576040517f08c379a000000000000000000000000000000000000000000000000000000000815260040161206590613442565b60405180910390fd5b805181602001fd5b63150b7a0260e01b7bffffffffffffffffffffffffffffffffffffffffffffffffffffffff1916817bffffffffffffffffffffffffffffffffffffffffffffffffffffffff1916149150506120cb565b600190505b949350505050565b606060405180602001604052806000815250905090565b60606120f582611247565b60006120ff6120d3565b9050600081511161211f576040518060200160405280600081525061214a565b806121298461233f565b60405160200161213a9291906132f6565b6040516020818303038152906040525b915050919050565b60007f01ffc9a7000000000000000000000000000000000000000000000000000000007bffffffffffffffffffffffffffffffffffffffffffffffffffffffff1916827bffffffffffffffffffffffffffffffffffffffffffffffffffffffff1916149050919050565b6121c884848484612463565b600181111561220c576040517f08c379a000000000000000000000000000000000000000000000000000000000815260040161220390613602565b60405180910390fd5b6000829050600073ffffffffffffffffffffffffffffffffffffffff168573ffffffffffffffffffffffffffffffffffffffff1614156122545761224f81612469565b612293565b8373ffffffffffffffffffffffffffffffffffffffff168573ffffffffffffffffffffffffffffffffffffffff16146122925761229185826124b2565b5b5b600073ffffffffffffffffffffffffffffffffffffffff168473ffffffffffffffffffffffffffffffffffffffff1614156122d6576122d18161261f565b612315565b8473ffffffffffffffffffffffffffffffffffffffff168473ffffffffffffffffffffffffffffffffffffffff1614612314576123138482612762565b5b5b5050505050565b6000808273ffffffffffffffffffffffffffffffffffffffff163b119050919050565b60606000600161234e846127e1565b01905060008167ffffffffffffffff811115612393577f4e487b7100000000000000000000000000000000000000000000000000000000600052604160045260246000fd5b6040519080825280601f01601f1916602001820160405280156123c55781602001600182028036833780820191505090505b509050600082602001820190505b600115612458578080600190039150507f3031323334353637383961626364656600000000000000000000000000000000600a86061a8153600a8581612442577f4e487b7100000000000000000000000000000000000000000000000000000000600052601260045260246000fd5b049450600085141561245357612458565b6123d3565b819350505050919050565b50505050565b6008805490506009600083815260200190815260200160002081905550600881908060018154018082558091505060019003906000526020600020016000909190919091505550565b600060016124bf84610a65565b6124c991906137f2565b90506000600760008481526020019081526020016000205490508181146125ae576000600660008673ffffffffffffffffffffffffffffffffffffffff1673ffffffffffffffffffffffffffffffffffffffff168152602001908152602001600020600084815260200190815260200160002054905080600660008773ffffffffffffffffffffffffffffffffffffffff1673ffffffffffffffffffffffffffffffffffffffff168152602001908152602001600020600084815260200190815260200160002081905550816007600083815260200190815260200160002081905550505b6007600084815260200190815260200160002060009055600660008573ffffffffffffffffffffffffffffffffffffffff1673ffffffffffffffffffffffffffffffffffffffff16815260200190815260200160002060008381526020019081526020016000206000905550505050565b6000600160088054905061263391906137f2565b9050600060096000848152602001908152602001600020549050600060088381548110612689577f4e487b7100000000000000000000000000000000000000000000000000000000600052603260045260246000fd5b9060005260206000200154905080600883815481106126d1577f4e487b7100000000000000000000000000000000000000000000000000000000600052603260045260246000fd5b906000526020600020018190555081600960008381526020019081526020016000208190555060096000858152602001908152602001600020600090556008805480612746577f4e487b7100000000000000000000000000000000000000000000000000000000600052603160045260246000fd5b6001900381819060005260206000200160009055905550505050565b600061276d83610a65565b905081600660008573ffffffffffffffffffffffffffffffffffffffff1673ffffffffffffffffffffffffffffffffffffffff168152602001908152602001600020600083815260200190815260200160002081905550806007600084815260200190815260200160002081905550505050565b600080600090507a184f03e93ff9f4daa797ed6e38ed64bf6a1f0100000000000000008310612865577a184f03e93ff9f4daa797ed6e38ed64bf6a1f010000000000000000838161285b577f4e487b7100000000000000000000000000000000000000000000000000000000600052601260045260246000fd5b0492506040810190505b6d04ee2d6d415b85acef810000000083106128c8576d04ee2d6d415b85acef810000000083816128be577f4e487b7100000000000000000000000000000000000000000000000000000000600052601260045260246000fd5b0492506020810190505b662386f26fc10000831061291d57662386f26fc100008381612913577f4e487b7100000000000000000000000000000000000000000000000000000000600052601260045260246000fd5b0492506010810190505b6305f5e100831061296c576305f5e1008381612962577f4e487b7100000000000000000000000000000000000000000000000000000000600052601260045260246000fd5b0492506008810190505b61271083106129b75761271083816129ad577f4e487b7100000000000000000000000000000000000000000000000000000000600052601260045260246000fd5b0492506004810190505b60648310612a0057606483816129f6577f4e487b7100000000000000000000000000000000000000000000000000000000600052601260045260246000fd5b0492506002810190505b600a8310612a0f576001810190505b80915050919050565b828054612a24906138dc565b90600052602060002090601f016020900481019282612a465760008555612a8d565b82601f10612a5f57805160ff1916838001178555612a8d565b82800160010185558215612a8d579182015b82811115612a8c578251825591602001919060010190612a71565b5b509050612a9a9190612a9e565b5090565b5b80821115612ab7576000816000905550600101612a9f565b5090565b6000612ace612ac9846136db565b6136b6565b905082815260208101848484011115612ae657600080fd5b612af184828561389a565b509392505050565b6000612b0c612b078461370c565b6136b6565b905082815260208101848484011115612b2457600080fd5b612b2f84828561389a565b509392505050565b600081359050612b4681613ed0565b92915050565b600081359050612b5b81613ee7565b92915050565b600081359050612b7081613efe565b92915050565b600081519050612b8581613efe565b92915050565b600082601f830112612b9c57600080fd5b8135612bac848260208601612abb565b91505092915050565b600082601f830112612bc657600080fd5b8135612bd6848260208601612af9565b91505092915050565b600081359050612bee81613f15565b92915050565b600060208284031215612c0657600080fd5b6000612c1484828501612b37565b91505092915050565b60008060408385031215612c3057600080fd5b6000612c3e85828601612b37565b9250506020612c4f85828601612b37565b9150509250929050565b600080600060608486031215612c6e57600080fd5b6000612c7c86828701612b37565b9350506020612c8d86828701612b37565b9250506040612c9e86828701612bdf565b9150509250925092565b60008060008060808587031215612cbe57600080fd5b6000612ccc87828801612b37565b9450506020612cdd87828801612b37565b9350506040612cee87828801612bdf565b925050606085013567ffffffffffffffff811115612d0b57600080fd5b612d1787828801612b8b565b91505092959194509250565b60008060408385031215612d3657600080fd5b6000612d4485828601612b37565b9250506020612d5585828601612b4c565b9150509250929050565b60008060408385031215612d7257600080fd5b6000612d8085828601612b37565b925050602083013567ffffffffffffffff811115612d9d57600080fd5b612da985828601612bb5565b9150509250929050565b60008060408385031215612dc657600080fd5b6000612dd485828601612b37565b9250506020612de585828601612bdf565b9150509250929050565b600060208284031215612e0157600080fd5b6000612e0f84828501612b61565b91505092915050565b600060208284031215612e2a57600080fd5b6000612e3884828501612b76565b91505092915050565b600060208284031215612e5357600080fd5b6000612e6184828501612bdf565b91505092915050565b60008060408385031215612e7d57600080fd5b6000612e8b85828601612bdf565b9250506020612e9c85828601612b37565b9150509250929050565b6000612eb28383612ed6565b60208301905092915050565b6000612eca83836132d8565b60208301905092915050565b612edf81613826565b82525050565b612eee81613826565b82525050565b6000612eff8261375d565b612f0981856137a3565b9350612f148361373d565b8060005b83811015612f45578151612f2c8882612ea6565b9750612f3783613789565b925050600181019050612f18565b5085935050505092915050565b6000612f5d82613768565b612f6781856137b4565b9350612f728361374d565b8060005b83811015612fa3578151612f8a8882612ebe565b9750612f9583613796565b925050600181019050612f76565b5085935050505092915050565b612fb981613838565b82525050565b6000612fca82613773565b612fd481856137c5565b9350612fe48185602086016138a9565b612fed81613a15565b840191505092915050565b60006130038261377e565b61300d81856137d6565b935061301d8185602086016138a9565b61302681613a15565b840191505092915050565b600061303c8261377e565b61304681856137e7565b93506130568185602086016138a9565b80840191505092915050565b600061306f602d836137d6565b915061307a82613a26565b604082019050919050565b6000613092602b836137d6565b915061309d82613a75565b604082019050919050565b60006130b56032836137d6565b91506130c082613ac4565b604082019050919050565b60006130d86026836137d6565b91506130e382613b13565b604082019050919050565b60006130fb6025836137d6565b915061310682613b62565b604082019050919050565b600061311e601c836137d6565b915061312982613bb1565b602082019050919050565b60006131416024836137d6565b915061314c82613bda565b604082019050919050565b60006131646019836137d6565b915061316f82613c29565b602082019050919050565b60006131876029836137d6565b915061319282613c52565b604082019050919050565b60006131aa602e836137d6565b91506131b582613ca1565b604082019050919050565b60006131cd6020836137d6565b91506131d882613cf0565b602082019050919050565b60006131f06020836137d6565b91506131fb82613d19565b602082019050919050565b60006132136018836137d6565b915061321e82613d42565b602082019050919050565b60006132366021836137d6565b915061324182613d6b565b604082019050919050565b6000613259603d836137d6565b915061326482613dba565b604082019050919050565b600061327c602c836137d6565b915061328782613e09565b604082019050919050565b600061329f6035836137d6565b91506132aa82613e58565b604082019050919050565b60006132c26016836137d6565b91506132cd82613ea7565b602082019050919050565b6132e181613890565b82525050565b6132f081613890565b82525050565b60006133028285613031565b915061330e8284613031565b91508190509392505050565b600060208201905061332f6000830184612ee5565b92915050565b600060808201905061334a6000830187612ee5565b6133576020830186612ee5565b61336460408301856132e7565b81810360608301526133768184612fbf565b905095945050505050565b6000602082019050818103600083015261339b8184612ef4565b905092915050565b600060208201905081810360008301526133bd8184612f52565b905092915050565b60006020820190506133da6000830184612fb0565b92915050565b600060208201905081810360008301526133fa8184612ff8565b905092915050565b6000602082019050818103600083015261341b81613062565b9050919050565b6000602082019050818103600083015261343b81613085565b9050919050565b6000602082019050818103600083015261345b816130a8565b9050919050565b6000602082019050818103600083015261347b816130cb565b9050919050565b6000602082019050818103600083015261349b816130ee565b9050919050565b600060208201905081810360008301526134bb81613111565b9050919050565b600060208201905081810360008301526134db81613134565b9050919050565b600060208201905081810360008301526134fb81613157565b9050919050565b6000602082019050818103600083015261351b8161317a565b9050919050565b6000602082019050818103600083015261353b8161319d565b9050919050565b6000602082019050818103600083015261355b816131c0565b9050919050565b6000602082019050818103600083015261357b816131e3565b9050919050565b6000602082019050818103600083015261359b81613206565b9050919050565b600060208201905081810360008301526135bb81613229565b9050919050565b600060208201905081810360008301526135db8161324c565b9050919050565b600060208201905081810360008301526135fb8161326f565b9050919050565b6000602082019050818103600083015261361b81613292565b9050919050565b6000602082019050818103600083015261363b816132b5565b9050919050565b600060208201905061365760008301846132e7565b92915050565b600060408201905061367260008301856132e7565b61367f6020830184612ee5565b9392505050565b600060408201905061369b60008301856132e7565b81810360208301526136ad8184612ff8565b90509392505050565b60006136c06136d1565b90506136cc828261390e565b919050565b6000604051905090565b600067ffffffffffffffff8211156136f6576136f56139e6565b5b6136ff82613a15565b9050602081019050919050565b600067ffffffffffffffff821115613727576137266139e6565b5b61373082613a15565b9050602081019050919050565b6000819050602082019050919050565b6000819050602082019050919050565b600081519050919050565b600081519050919050565b600081519050919050565b600081519050919050565b6000602082019050919050565b6000602082019050919050565b600082825260208201905092915050565b600082825260208201905092915050565b600082825260208201905092915050565b600082825260208201905092915050565b600081905092915050565b60006137fd82613890565b915061380883613890565b92508282101561381b5761381a613988565b5b828203905092915050565b600061383182613870565b9050919050565b60008115159050919050565b60007fffffffff0000000000000000000000000000000000000000000000000000000082169050919050565b600073ffffffffffffffffffffffffffffffffffffffff82169050919050565b6000819050919050565b82818337600083830152505050565b60005b838110156138c75780820151818401526020810190506138ac565b838111156138d6576000848401525b50505050565b600060028204905060018216806138f457607f821691505b60208210811415613908576139076139b7565b5b50919050565b61391782613a15565b810181811067ffffffffffffffff82111715613936576139356139e6565b5b80604052505050565b600061394a82613890565b91507fffffffffffffffffffffffffffffffffffffffffffffffffffffffffffffffff82141561397d5761397c613988565b5b600182019050919050565b7f4e487b7100000000000000000000000000000000000000000000000000000000600052601160045260246000fd5b7f4e487b7100000000000000000000000000000000000000000000000000000000600052602260045260246000fd5b7f4e487b7100000000000000000000000000000000000000000000000000000000600052604160045260246000fd5b6000601f19601f8301169050919050565b7f4552433732313a2063616c6c6572206973206e6f7420746f6b656e206f776e6560008201527f72206f7220617070726f76656400000000000000000000000000000000000000602082015250565b7f455243373231456e756d657261626c653a206f776e657220696e646578206f7560008201527f74206f6620626f756e6473000000000000000000000000000000000000000000602082015250565b7f4552433732313a207472616e7366657220746f206e6f6e20455243373231526560008201527f63656976657220696d706c656d656e7465720000000000000000000000000000602082015250565b7f4f776e61626c653a206e6577206f776e657220697320746865207a65726f206160008201527f6464726573730000000000000000000000000000000000000000000000000000602082015250565b7f4552433732313a207472616e736665722066726f6d20696e636f72726563742060008201527f6f776e6572000000000000000000000000000000000000000000000000000000602082015250565b7f4552433732313a20746f6b656e20616c7265616479206d696e74656400000000600082015250565b7f4552433732313a207472616e7366657220746f20746865207a65726f2061646460008201527f7265737300000000000000000000000000000000000000000000000000000000602082015250565b7f4552433732313a20617070726f766520746f2063616c6c657200000000000000600082015250565b7f4552433732313a2061646472657373207a65726f206973206e6f74206120766160008201527f6c6964206f776e65720000000000000000000000000000000000000000000000602082015250565b7f45524337323155524953746f726167653a2055524920736574206f66206e6f6e60008201527f6578697374656e7420746f6b656e000000000000000000000000000000000000602082015250565b7f4552433732313a206d696e7420746f20746865207a65726f2061646472657373600082015250565b7f4f776e61626c653a2063616c6c6572206973206e6f7420746865206f776e6572600082015250565b7f4552433732313a20696e76616c696420746f6b656e2049440000000000000000600082015250565b7f4552433732313a20617070726f76616c20746f2063757272656e74206f776e6560008201527f7200000000000000000000000000000000000000000000000000000000000000602082015250565b7f4552433732313a20617070726f76652063616c6c6572206973206e6f7420746f60008201527f6b656e206f776e6572206f7220617070726f76656420666f7220616c6c000000602082015250565b7f455243373231456e756d657261626c653a20676c6f62616c20696e646578206f60008201527f7574206f6620626f756e64730000000000000000000000000000000000000000602082015250565b7f455243373231456e756d657261626c653a20636f6e736563757469766520747260008201527f616e7366657273206e6f7420737570706f727465640000000000000000000000602082015250565b7f50726f66696c6520646f6573206e6f7420657869737400000000000000000000600082015250565b613ed981613826565b8114613ee457600080fd5b50565b613ef081613838565b8114613efb57600080fd5b50565b613f0781613844565b8114613f1257600080fd5b50565b613f1e81613890565b8114613f2957600080fd5b5056fea264697066735822122046b8d042ad21f4c35eb1c7f78fe92251df38d65f40ec8221a370a30f836bbee964736f6c63430008010033",
    "linkReferences": {},
    "deployedLinkReferences": {}
}