{
  "_format": "hh-sol-artifact-1",
  "contractName": "UserAuth",
  "sourceName": "contracts/UserAuth.sol",
  "abi": [
    {
      "anonymous": false,
      "inputs": [
        {
          "indexed": true,
          "internalType": "address",
          "name": "userAddress",
          "type": "address"
        }
      ],
      "name": "UserAuthenticated",
      "type": "event"
    },
    {
      "anonymous": false,
      "inputs": [
        {
          "indexed": true,
          "internalType": "address",
          "name": "userAddress",
          "type": "address"
        },
        {
          "indexed": false,
          "internalType": "bytes32",
          "name": "emailHash",
          "type": "bytes32"
        }
      ],
      "name": "UserRegistered",
      "type": "event"
    },
    {
      "inputs": [
        {
          "internalType": "bytes32",
          "name": "emailHash",
          "type": "bytes32"
        },
        {
          "internalType": "bytes32",
          "name": "passwordHash",
          "type": "bytes32"
        }
      ],
      "name": "authenticateUser",
      "outputs": [
        {
          "internalType": "bool",
          "name": "",
          "type": "bool"
        }
      ],
      "stateMutability": "view",
      "type": "function"
    },
    {
      "inputs": [
        {
          "internalType": "bytes32",
          "name": "emailHash",
          "type": "bytes32"
        },
        {
          "internalType": "bytes32",
          "name": "passwordHash",
          "type": "bytes32"
        }
      ],
      "name": "registerUser",
      "outputs": [],
      "stateMutability": "nonpayable",
      "type": "function"
    }
  ],
  "bytecode": "0x608060405234801561001057600080fd5b50610403806100206000396000f3fe608060405234801561001057600080fd5b50600436106100365760003560e01c80634a0f84691461003b578063957885351461006b575b600080fd5b61005560048036038101906100509190610293565b610087565b6040516100629190610310565b60405180910390f35b61008560048036038101906100809190610293565b61010a565b005b6000806000803373ffffffffffffffffffffffffffffffffffffffff1673ffffffffffffffffffffffffffffffffffffffff16815260200190815260200160002090508060020160009054906101000a900460ff166100ea576000915050610104565b8381600001541480156101005750828160010154145b9150505b92915050565b6000803373ffffffffffffffffffffffffffffffffffffffff1673ffffffffffffffffffffffffffffffffffffffff16815260200190815260200160002060020160009054906101000a900460ff1615610199576040517f08c379a000000000000000000000000000000000000000000000000000000000815260040161019090610346565b60405180910390fd5b6040518060600160405280838152602001828152602001600115158152506000803373ffffffffffffffffffffffffffffffffffffffff1673ffffffffffffffffffffffffffffffffffffffff168152602001908152602001600020600082015181600001556020820151816001015560408201518160020160006101000a81548160ff0219169083151502179055509050503373ffffffffffffffffffffffffffffffffffffffff167f4c5d15f5779ae1ecd7d55bd3283d898e29c35743d172bd7b83a16e17bc0afe2a83604051610272919061032b565b60405180910390a25050565b60008135905061028d816103b6565b92915050565b600080604083850312156102a657600080fd5b60006102b48582860161027e565b92505060206102c58582860161027e565b9150509250929050565b6102d881610377565b82525050565b6102e781610383565b82525050565b60006102fa601783610366565b91506103058261038d565b602082019050919050565b600060208201905061032560008301846102cf565b92915050565b600060208201905061034060008301846102de565b92915050565b6000602082019050818103600083015261035f816102ed565b9050919050565b600082825260208201905092915050565b60008115159050919050565b6000819050919050565b7f5573657220616c72656164792072656769737465726564000000000000000000600082015250565b6103bf81610383565b81146103ca57600080fd5b5056fea2646970667358221220c2de7c4f1b7e9da04fdef94f3fd54ec5de90611f02272806d0e4dfe7b4b8329464736f6c63430008010033",
  "linkReferences": {},
  "deployedLinkReferences": {}
}