{
  "_format": "hh-sol-artifact-1",
  "contractName": "UserAuth",
  "sourceName": "contracts/UserAuth.sol",
  "abi": [
    {
      "anonymous": false,
      "inputs": [
        {
          "indexed": true,
          "internalType": "address",
          "name": "userAddress",
          "type": "address"
        }
      ],
      "name": "UserAuthenticated",
      "type": "event"
    },
    {
      "anonymous": false,
      "inputs": [
        {
          "indexed": true,
          "internalType": "address",
          "name": "userAddress",
          "type": "address"
        },
        {
          "indexed": false,
          "internalType": "bytes32",
          "name": "emailHash",
          "type": "bytes32"
        }
      ],
      "name": "UserRegistered",
      "type": "event"
    },
    {
      "inputs": [
        {
          "internalType": "bytes32",
          "name": "emailHash",
          "type": "bytes32"
        },
        {
          "internalType": "bytes32",
          "name": "passwordHash",
          "type": "bytes32"
        }
      ],
      "name": "authenticateUser",
      "outputs": [
        {
          "internalType": "bool",
          "name": "",
          "type": "bool"
        }
      ],
      "stateMutability": "view",
      "type": "function"
    },
    {
      "inputs": [],
      "name": "increment",
      "outputs": [],
      "stateMutability": "nonpayable",
      "type": "function"
    },
    {
      "inputs": [
        {
          "internalType": "address",
          "name": "userAddress",
          "type": "address"
        }
      ],
      "name": "isRegistered",
      "outputs": [
        {
          "internalType": "bool",
          "name": "",
          "type": "bool"
        }
      ],
      "stateMutability": "view",
      "type": "function"
    },
    {
      "inputs": [],
      "name": "number",
      "outputs": [
        {
          "internalType": "uint256",
          "name": "",
          "type": "uint256"
        }
      ],
      "stateMutability": "view",
      "type": "function"
    },
    {
      "inputs": [
        {
          "internalType": "bytes32",
          "name": "emailHash",
          "type": "bytes32"
        },
        {
          "internalType": "bytes32",
          "name": "passwordHash",
          "type": "bytes32"
        }
      ],
      "name": "registerUser",
      "outputs": [],
      "stateMutability": "nonpayable",
      "type": "function"
    },
    {
      "inputs": [
        {
          "internalType": "uint256",
          "name": "newNumber",
          "type": "uint256"
        }
      ],
      "name": "setNumber",
      "outputs": [],
      "stateMutability": "nonpayable",
      "type": "function"
    }
  ],
  "bytecode": "0x608060405234801561001057600080fd5b506106ad806100206000396000f3fe608060405234801561001057600080fd5b50600436106100625760003560e01c80633fb5c1cb146100675780634a0f8469146100835780638381f58a146100b357806395788535146100d1578063c3c5a547146100ed578063d09de08a1461011d575b600080fd5b610081600480360381019061007c9190610444565b610127565b005b61009d60048036038101906100989190610408565b610131565b6040516100aa91906104bd565b60405180910390f35b6100bb6101b4565b6040516100c89190610513565b60405180910390f35b6100eb60048036038101906100e69190610408565b6101ba565b005b610107600480360381019061010291906103df565b61032e565b60405161011491906104bd565b60405180910390f35b610125610386565b005b8060018190555050565b6000806000803373ffffffffffffffffffffffffffffffffffffffff1673ffffffffffffffffffffffffffffffffffffffff16815260200190815260200160002090508060020160009054906101000a900460ff166101945760009150506101ae565b8381600001541480156101aa5750828160010154145b9150505b92915050565b60015481565b6000803373ffffffffffffffffffffffffffffffffffffffff1673ffffffffffffffffffffffffffffffffffffffff16815260200190815260200160002060020160009054906101000a900460ff1615610249576040517f08c379a0000000000000000000000000000000000000000000000000000000008152600401610240906104f3565b60405180910390fd5b6040518060600160405280838152602001828152602001600115158152506000803373ffffffffffffffffffffffffffffffffffffffff1673ffffffffffffffffffffffffffffffffffffffff168152602001908152602001600020600082015181600001556020820151816001015560408201518160020160006101000a81548160ff0219169083151502179055509050503373ffffffffffffffffffffffffffffffffffffffff167f4c5d15f5779ae1ecd7d55bd3283d898e29c35743d172bd7b83a16e17bc0afe2a8360405161032291906104d8565b60405180910390a25050565b60008060008373ffffffffffffffffffffffffffffffffffffffff1673ffffffffffffffffffffffffffffffffffffffff16815260200190815260200160002060020160009054906101000a900460ff169050919050565b6001600081548092919061039990610591565b9190505550565b6000813590506103af81610632565b92915050565b6000813590506103c481610649565b92915050565b6000813590506103d981610660565b92915050565b6000602082840312156103f157600080fd5b60006103ff848285016103a0565b91505092915050565b6000806040838503121561041b57600080fd5b6000610429858286016103b5565b925050602061043a858286016103b5565b9150509250929050565b60006020828403121561045657600080fd5b6000610464848285016103ca565b91505092915050565b61047681610551565b82525050565b6104858161055d565b82525050565b600061049860178361052e565b91506104a382610609565b602082019050919050565b6104b781610587565b82525050565b60006020820190506104d2600083018461046d565b92915050565b60006020820190506104ed600083018461047c565b92915050565b6000602082019050818103600083015261050c8161048b565b9050919050565b600060208201905061052860008301846104ae565b92915050565b600082825260208201905092915050565b600061054a82610567565b9050919050565b60008115159050919050565b6000819050919050565b600073ffffffffffffffffffffffffffffffffffffffff82169050919050565b6000819050919050565b600061059c82610587565b91507fffffffffffffffffffffffffffffffffffffffffffffffffffffffffffffffff8214156105cf576105ce6105da565b5b600182019050919050565b7f4e487b7100000000000000000000000000000000000000000000000000000000600052601160045260246000fd5b7f5573657220616c72656164792072656769737465726564000000000000000000600082015250565b61063b8161053f565b811461064657600080fd5b50565b6106528161055d565b811461065d57600080fd5b50565b61066981610587565b811461067457600080fd5b5056fea2646970667358221220e3b57d8bc73afef98fc65653cfdc23374be7d2264efe7913898b09383e7f0d8864736f6c63430008010033",
  "linkReferences": {},
  "deployedLinkReferences": {}
}